:1011A200040103020201000002020203040102011F
:1011B2000403030402000202030102030202020406
:1011C20002040003040203010003010303000200FE
:1011D20004030303030304010104030001000302E7
:1011E20003020303040401030000030103030300D9
:1011F20003030401020401030001030404030203C4
:09120200010203034C4F56452183
:10132F00450010E7E7E7E7E705770A233C556E012D
:10133F004F03102800000400000004000000040008
:04134F00000000009A
:08140A007F0C7EA8DEFEDFFC72
:0114120022B7
:0E13DA00AD07AF051DEF600512140A80F52265
:1013BA0075C501E4F5C38FC475C65A75C6A5AFC213
:0113CA002200
:10120B00E0FD0F12123FA3E0FD0F12123FA3E0FD12
:10121B000F12123FA3E0FD0F12123FA3E0FD0F12BE
:10122B00123FA3E0FD0F12123FA3E0FD0F12123F7E
:04123B00A3E0FD0F20
:10123F0075C5028DC2E4F5C38FC475C65A75C6A5B0
:01124F00227C
:0F13CB0075C503E4F5C38FC475C65A75C6A52250
:1008840075C782E4FF1213BABFA40A7F011213BA18
:10089400EF644A6005D2050209637F021213BA8F1E
:1008A400777F031213BA8F787F041213BA8F797F7C
:1008B400051213BA8F7A7F061213BA8F7B7F071241
:1008C40013BA900010EFF07F081213BAA3EFF07F71
:1008D400091213BAA3EFF07F0A1213BAA3EFF07F41
:1008E4000B1213BAA3EFF07F1E1213BAEF24FF9278
:1008F4000A7F1F1213BAEF24FF92017F201213BA4A
:10090400EF24FF92027F211213BAEF24FF92047F97
:10091400221213BAEF24FF92097F231213BAEF2491
:10092400FF920C7F241213BAEF24FF920D7F25123D
:1009340013BAEF24FF920E7F261213BAEF24FF920C
:100944000F7F271213BAEF24FF92107F281213BAD5
:10095400EF24FF92117F291213BAEF24FF92127F22
:100964000C1213BABFA40A7F0D1213BAEF644A60C3
:100974003C9000007402F0A3E4F0A37402F0A3E43A
:10098400F0A3F0A37450F0A37402F0A3E4F0A374F2
:1009940002F0A3E4F0A37402F0A3E4F0A37402F061
:1009A400A3E4F0A37402F0A3E4F0020AE17F0E12C0
:1009B40013BA900000E4F0A3EFF0E0F8E4F0E8905C
:1009C4000000F07F0F1213BAA3E02FF0900000E0B4
:1009D4003400F07F101213BA900002E4F0A3EFF099
:1009E400E0F8E4F0E8900002F07F111213BAA3E0FB
:1009F4002FF0900002E03400F07F121213BA90003E
:100A040004E4F0A3EFF0E0F8E4F0E8900004F07FF1
:100A1400131213BAA3E02FF0900004E03400F07F27
:100A2400141213BA900006E4F0A3EFF0E0F8E4F037
:100A3400E8900006F07F151213BAA3E02FF090009F
:100A440006E03400F07F161213BA900008E4F0A315
:100A5400EFF0E0F8E4F0E8900008F07F171213BA22
:100A6400A3E02FF0900008E03400F07F181213BACE
:100A740090000AE4F0A3EFF0E0F8E4F0E890000A54
:100A8400F07F191213BAA3E02FF090000AE03400AB
:100A9400F07F1A1213BA90000CE4F0A3EFF0E0F820
:100AA400E4F0E890000CF07F1B1213BAA3E02FF0DF
:100AB40090000CE03400F07F1C1213BA90000EE496
:100AC400F0A3EFF0E0F8E4F0E890000EF07F1D12E0
:100AD40013BAA3E02FF090000EE03400F0E4F5C761
:010AE40022EF
:100F4D0075C782E4FF1213CB7DA412123F7D4A0FA9
:100F5D0012123FAD770F12123FAD780F12123FAD47
:100F6D00790F12123FAD7A0F12123FAD7B0F121295
:100F7D003F9000101212203000167DA40F12123F68
:100F8D007D4A0F12123F90000012120BA312120B8A
:100F9D00A20AE433FD7F1E12123FA201E433FD0FBE
:100FAD0012123FA202E433FD0F12123FA204E433EA
:100FBD00FD0F12123FA209E433FD0F12123FA20CD6
:100FCD00E433FD0F12123FA20DE433FD0F12123F59
:100FDD00A20EE433FD0F12123FA20FE433FD0F12E8
:100FED00123FA210E433FD0F12123FA211E433FDA4
:100FFD000F12123FA212E433FD0F12123FE4F5C798
:01100D0022C0
:10000E0012003D120AE5FF12003D900001120AFE99
:10001E00FF12003D900002120AFEFF12003D9000FA
:0F002E0003120AFEFF12003D900004120AFEFFAB
:10003D00E4FEEF339296D297EF25E0FFA295E433DD
:08004D004207C2970EBE08EA4B
:010055002288
:06139000C2CD7D407F0785
:10139600C2CCEF2420FF12003DAF0512003DD2CC97
:0113A6002224
:0812FF007B007A00796B7D0B86
:061307008B0C8A0D890E1B
:10130D00C2CC7FA012003DE4FCECC39D5011AB0C90
:10131D00AA0DA90E8C827583001200390C80EAD2B9
:01132D00CCF3
:01132E00229C
:081294007B007A00795F7D0BFD
:06129C008B0B8A0C890D8A
:1012A200C2CC7F6112003DE4FCECC39D5017E4FF09
:1012B20012003DAB0BAA0CA90D8C82758300EF12B4
:0712C2000B2B0C80E4D2CCE1
:0112C9002202
:0A140000C2CC7F3012000ED2CC22C5
:0E1378007F211213AE7BFF7A12790612140049
:0A138600C2CC7F2A12000ED2CC2246
:0C005600C2CD7D3BE4FF121396D2CD22F8
:0C13E800C2CD7D0AE4FF121396D2CD2284
:10135400C2CDBF03047D278013BF02047D25800C0A
:10136400BF01047D238005EF70077D217F061213E2
:0413740096D2CD221E
:0C13F400AD07C2CD7F11121396D2CD229E
:0713A7007477254DF8E6FF05
:0C13AE00AD07C2CD7F05121396D2CD22F0
:1012CA00C2CDC297E4FD7F011213960D7F0212135D
:1012DA00961D7F041213961200567F421213AEAF68
:1012EA004F1213547F0B1213F47B017A00791012F8
:0512FA00138602140040
:10111F00E4F50BC2CDC297C2CC7F2012003DEF6425
:10112F000E6003750B017F0A12003DD2CCC2CCE4D6
:10113F00FF12003DE4FF12003DEF640A60034376A7
:10114F0002D2CCE4FD7F011213967F041213960D89
:10115F007F111213967B007A00796B121307D2CD91
:10116F007F021213DAC2CCE4FF12003DEF642E604F
:10117F0003437604D2CC309403437618D2CDE50BDB
:10118F00600AE576D3940140034376017D207F0703
:03119F00021396A2
:10109A00F54A8E49E5681313543F254AF54AE43563
:1010AA0049F549E5685403754B00F54C754C00F554
:1010BA004BE569254CF54CE4354BF54BE4FBFA7DE1
:1010CA00FF7C03AF3EAE3D121102AF40AE3F12119C
:1010DA0002AF42AE41121102AF44AE43121102AF47
:1010EA0046AE45121102AF48AE47121102AF4AAEE0
:0810FA0049121102AF4CAE4B8C
:10110200D3EF9DEC6480F8EE6480984004AE04AFA7
:0D11120005C3EF9BEA6480F8EE648098222C
:100CD10075A21075F40375F30375D840C2B3D2B28F
:100CE10012140A20B20D75B208D2B312140A30B22E
:100CF10002D203C2B3C2B2D2B47F641213DA75B2A4
:100D0100FF759201300302D205120884900000E0C1
:100D1100FEA3E0FFE4FBFA7DFF7C03121102A3E0D6
:100D2100FEA3E0FF121102A3E0FEA3E0FF121102F5
:100D3100A3E0FEA3E0FF121102A3E0FEA3E0FF1275
:100D41001102A3E0FEA3E0FF121102A3E0FEA3E063
:100D5100FF121102A3E0FEA3E0FF12110212111F04
:100D6100E5766014750A0AC2B47F321213DAD2B47E
:100D71007F321213DAD50AEF1212CA200503020ECE
:100D81001EE4FF1213541213782094FD12129412D0
:100D91001390D2CDE55FB4A0258560778561788514
:100DA100627985637A85647B900010E565F0A3E53F
:100DB10066F0A3E567F0A3E568F0A3E569F0756B5C
:100DC1004F756C4BD2063006401213E8121378129D
:100DD10012FF12140A120056AF771213AE7B017A7A
:100DE10000791012140012138612140A20940C12A6
:100DF1001294121390D2CDC20680CB050AE50AD314
:100E0100946440E5E4F50A80BD120F4D7B017A0040
:0D0E110079101213861214007F031213547F
:010E1E0022B1
:10006600C290C2B7C2B6C2B5C2B3C2B2C2B1C2B002
:10007600E5876008E4F58712140A80F47FC8121336
:10008600DA7FC81213DA120CD175BC8075B8027506
:10009600A88275AF04E4F58975D74775D6F4758ED1
:1000A60010AF771213AE2094FDD28CD207C2B4A241
:1000B60007829440FA200703020471C213C214E4B3
:1000C600F527055AF550F551F554F555F56AFB1225
:1000D6001296121390D2CD1213E8853B6BAC56AD37
:1000E600577E7E7F81120B5F8E258F26E525F56C68
:1000F60085266DAE58AF59AB07AA06E4F9F8AE25CA
:10010600AF26FCFD120BB4E47B03FAF9F8120BB42C
:10011600E4FB7A04F9F81212508E238F24E523F5B6
:100126006E85246F1212FF12140A12005630080A46
:10013600C208E54E9011A293F54D054DE54DD394B9
:10014600044003E4F54D1213A7E55F64A2600302C1
:1001560001F8D20BD2B4E56030E704D20A8002C2BD
:100166000AE56030E307D20175DC428005C201E48E
:10017600F5DCE56030E207D20275DB428005C2029B
:10018600E4F5DBE56030E107D20475DA428005C2AA
:1001960004E4F5DAE56130E704D2098002C209E534
:1001A6006130E604D20C8002C20CE56130E504D26F
:1001B6000D8002C20DE56130E404D20E8002C20E4B
:1001C600E56130E304D20F8002C20FE56130E2043C
:1001D600D2108002C210E56130E104D2118002C261
:1001E60011E56130E004D2128002C212120F4D02F4
:1001F60000B5E55F64A06003020343D20BD2B4F5F9
:100206003D85603EE53EAE3D7802C333CE33CED863
:10021600F9F53E8E3DE561C413135403253EF53EC4
:10022600E4353DF53DE561543F753F00F540C4F8C2
:10023600540FC868F540E53FC454F048F53FE56201
:10024600C4540F2540F540E4353FF53FE562540FB1
:10025600754100F542AE417806C333CE33CED8F9A8
:10026600F5428E41E5631313543F2542F542E435CA
:1002760041F541E5635403754300F544754400F5C3
:1002860043E5642544F544E43543F5437545008567
:100296006546E546AE457802C333CE33CED8F9F58A
:1002A600468E45E566C4131354032546F546E435E4
:1002B60045F545E566543F754700F548C4F8540FC3
:1002C600C868F548E547C454F048F547E567C4549F
:1002D6000F2548F548E43547F547E567540F754956
:1002E60000F54AAE497806C333CE33CED8F912109C
:1002F6009A900000E53DF0A3E53EF0A3E53FF0A3AC
:10030600E540F0A3E541F0A3E542F0A3E543F0A301
:10031600E544F0A3E545F0A3E546F0A3E547F0A3E1
:10032600E548F0A3E549F0A3E54AF0A3E54BF0A3C1
:10033600E54CF0D200120F4DC2000200B5E55F6435
:10034600A160030200B5F53D85603EE53EAE3D7811
:1003560002C333CE33CED8F9F53E8E3DE561C413E4
:10036600135403253EF53EE4353DF53DE561543F26
:10037600753F00F540C4F8540FC868F540E53FC422
:1003860054F048F53FE562C4540F2540F540E43586
:100396003FF53FE562540F754100F542AE417806E0
:1003A600C333CE33CED8F9F5428E41E563131354E9
:1003B6003F2542F542E43541F541E5635403754373
:1003C60000F544754400F543E5642544F544E435F9
:1003D60043F543754500856546E546AE457802C357
:1003E60033CE33CED8F9F5468E45E566C41313549D
:1003F600032546F546E43545F545E566543F75471C
:1004060000F548C4F8540FC868F548E547C454F0E9
:1004160048F547E567C4540F2548F548E43547F5E0
:1004260047E567540F754900F54AAE497806C33368
:10043600CE33CED8F912109A853D28853E29853FC0
:100446002A85402B85412C85422D85432E85442FB8
:10045600854530854631854732854833854934851B
:100466004A35854B36854C370200B50527E527D337
:1004760094054002D20830081F054EE54ED394631A
:100486004003E4F54EE54E9011A2932477F8E6FF7B
:100496001213AED2070200B5054DE54DD3940440C4
:0C04A60003E4F54D1213A7D2070200B5C5
:03000B000204B23A
:1004B200C0E0C0F0C083C082C0D075D000C000C010
:0704C20004C005C006C007DD
:1004C900200A03020606053AE53A14B4120040036D
:1004D90002086F9004EA75F003A4C58325F0C5836B
:1004E9007302052002053602053902054F0205523D
:1004F90002056702056902057E020580020595026B
:1005090005970205AC0205AE0205C30205C5020541
:10051900E20205ED0205F8D290758A70758CFEC36A
:1005290074A79529F50974FD95280205D80205E2F5
:10053900D290758A70758CFEC374A7952BF50974D2
:10054900FD952A0205D80205E2D290758A70758C4C
:10055900FEC374A7952DF50974FD952C80718079DA
:10056900D290758A70758CFEC374A7952FF509749E
:10057900FD952E805A8062D290758A70758CFEC363
:1005890074A79531F50974FD95308043804BD2905D
:10059900758A70758CFEC374A79533F50974FD953A
:1005A90032802C8034D290758A70758CFEC374A702
:1005B9009535F50974FD95348015801DD290758A9D
:1005C90070758CFEC374A79537F50974FD9536F5DA
:1005D9000885093CF53902086FC290853C8A85393E
:1005E9008C02086FD290758A70758CFE02086FC2F2
:1005F90090758AF0758CD8753A0002086F0538E550
:100609003814B41000400302086F90062175F003F6
:10061900A4C58325F0C583730206510206A002060C
:10062900AF0206FF02070E02073202073E02076207
:1006390002076E02079202079D0207C00207CB025A
:1006490007EE020817020845300129C3E529946419
:10065900E5289400500575F403800375F400E52935
:10066900AE287802CEC313CE13D8F9FFC374FF9F07
:10067900F5FC8018300913C3E52994F4E5289401A1
:100689005004C2908006D2908002D290C3E4955C57
:10069900F55E74E5020838200105200902C290AE12
:1006A9002AAF2B0207F7300229C3E52B9464E52A08
:1006B9009400500575F303800375F300E52BAE2A0A
:1006C9007802CEC313CE13D8F9FFC374FF9FF5FB8D
:1006D9008018300C13C3E52B94F4E52A94015004D7
:1006E900C2B78006D2B78002D2B7C374F4955CF55D
:1006F9005E74F5020838200205200C02C2B7AE2C40
:10070900AF2D0207F7300D13C3E52D94F4E52C94B2
:10071900015004C2B68006D2B68002D2B6C374F4C0
:10072900955CF55E74F5020838200D02C2B6AE2E4E
:10073900AF2F0207F7300E13C3E52F94F4E52E947B
:10074900015004C2B58006D2B58002D2B5C374F493
:10075900955CF55E74F5020838200E02C2B5AE301C
:10076900AF310207F7300F13C3E53194F4E5309444
:10077900015004C2B38006D2B38002D2B3C374F469
:10078900955CF55E74F5020838200F02C2B3AE32EB
:10079900AF33805A301013C3E53394F4E532940132
:1007A9005004C2B28006D2B28002D2B2C374F495A8
:1007B9005CF55E74F58078201002C2B2AE34AF35B4
:1007C900802C301113C3E53594F4E53494015004B9
:1007D900C2B18006D2B18002D2B1C374F4955CF57E
:1007E9005E74F5804A201102C2B1AE36AF377C0083
:1007F9007D1B120B4D7D14120B5FC374EE9FF55CCC
:1008090074FC9EF55B855C8AE55BF58C805830123B
:1008190013C3E53794F4E53694015004C2B0800659
:10082900D2B08002D2B0C374F4955CF55E74F595CC
:100839005BF55D855E8AE55DF58C802A201202C232
:10084900B0AE28AF297C007D1B120B4D7D14120B15
:100859005FC374EE9FF55C74FC9EF55B855C8AE56D
:060869005BF58C75380000
:10086F00D007D006D005D004D000D0D0D082D0830E
:05087F00D0F0D0E032D2
:03006300020E1F6B
:100E1F00C0E0C083C082C0D075D000C000C006C083
:100E2F00070551E55170020550D3944DE5509401DB
:100E3F00400D75500175514D753B00D2B48002C203
:100E4F00B40553E55370020552D3944DE552940106
:100E5F00400C755200755300855A3B755A00055565
:100E6F00E55570020554D3949AE5549402404875A1
:100E7F00540275559A900000E0F528A3E0F529A3D8
:100E8F00E0F52AA3E0F52BA3E0F52CA3E0F52DA3C5
:100E9F00E0F52EA3E0F52FA3E0F530A3E0F531A3A5
:100EAF00E0F532A3E0F533A3E0F534A3E0F535A385
:100EBF00E0F536A3E0F537056A20130FE56AD39402
:100ECF00074026C207D213C214801E20140DE56AF4
:100EDF00D3940E4014C207D214800EE56AD3941631
:100EEF004007756A00C207C213057CE57CB4010F89
:100EFF00AFBD7556008F57759D0875BC8B8030E55B
:100F0F007CB4022B757C00AFBD7558008F59E55925
:100F1F00AE587802C333CE33CED8F9F5598E58AFC9
:100F2F00BE2FF559E43558F558759D0075BC88D01E
:0E0F3F0007D006D000D0D0D082D083D0E032D0
:0300000002100EDD
:0C100E00787FE4F6D8FD75817C02105557
:100AE500BB010689828A83E0225002E722BBFE020F
:090AF500E32289828A83E4932242
:100AFE00BB010CE58229F582E5833AF583E02250AD
:100B0E0006E92582F8E622BBFE06E92582F8E222F6
:0D0B1E00E58229F582E5833AF583E4932210
:100B2B00F8BB010DE58229F582E5833AF583E8F000
:100B3B00225006E92582C8F622BBFE05E92582C8AC
:020B4B00F22294
:100B4D00EF8DF0A4A8F0CF8CF0A428CE8DF0A42EBC
:020B5D00FE2276
:100B5F00BC000BBE0029EF8DF084FFADF022E4CC7A
:100B6F00F875F008EF2FFFEE33FEEC33FCEE9DEC43
:100B7F00984005FCEE9DFE0FD5F0E9E4CEFD22ED89
:100B8F00F8F5F0EE8420D21CFEADF075F008EF2FD3
:100B9F00FFED33FD4007985006D5F0F222C398FDC4
:050BAF000FD5F0EA2261
:100BB400E88FF0A4CC8BF0A42CFCE98EF0A42CFCE0
:100BC4008AF0EDA42CFCEA8EF0A4CDA8F08BF0A45E
:100BD4002DCC3825F0FDE98FF0A42CCD35F0FCEBBD
:100BE4008EF0A4FEA9F0EB8FF0A4CFC5F02ECD3982
:0F0BF400FEE43CFCEAA42DCE35F0FDE43CFC22EF
:10125000C2D5E830E70FB2D5E4C39BFBE49AFAE4C9
:1012600099F9E498F8EC30E717B2D5121286120C0F
:101270003FE4C39BFBE49AFAE499F9E498F880030D
:10128000120C3F30D50DE4C39FFFE49EFEE49DFDAC
:04129000E49CFC22BC
:10101A00020066E493A3F8E493A34003F68001F286
:10102A0008DFF48029E493A3F85407240CC8C333D7
:10103A00C4540F4420C8834004F456800146F6DFA6
:10104A00E4800B010204081020408090132FE47EF4
:10105A00019360BCA3FF543F30E509541FFEE4939B
:10106A00A360010ECF54C025E060A840B8E493A362
:10107A00FAE493A3F8E493A3C8C582C8CAC583CA8D
:10108A00F0A3C8C582C8CAC583CADFE9DEE780BE45
:011353000099
:100C030075F008758200EF2FFFEE33FECD33CDCCA8
:100C130033CCC58233C5829BED9AEC99E58298402B
:100C23000CF582EE9BFEED9AFDEC99FC0FD5F0D608
:100C3300E4CEFBE4CDFAE4CCF9A88222B800C1B932
:100C43000059BA002DEC8BF084CFCECDFCE5F0CB70
:100C5300F97818EF2FFFEE33FEED33FDEC33FCEBA9
:100C630033FB10D703994004EB99FB0FD8E5E4F964
:100C7300FA227818EF2FFFEE33FEED33FDEC33FC51
:100C8300C933C910D7059BE99A4007EC9BFCE99A45
:100C9300F90FD8E0E4C9FAE4CCFB2275F010EF2F8A
:100CA300FFEE33FEED33FDCC33CCC833C810D7078A
:100CB3009BEC9AE899400AED9BFDEC9AFCE899F8C5
:0E0CC3000FD5F0DAE4CDFBE4CCFAE4C8F92258
:00000001FF
