:105427000000000000000000004F0000000007001F
:10543700070000147F147F1400242A7F2A120023F8
:105447001308646200364955225000000503000026
:1054570000001C224100000041221C000014083EED
:1054670008140008083E0808000050300000000833
:105477000808080800006060000000201008040207
:10548700003E5149453E0000427F400000426151C5
:105497004946002141454B31001814127F1000275F
:1054A70045454539003C4A49493000017109050322
:1054B70000364949493600064949291E0000363653
:1054C70000000000563600000008142241000014B6
:1054D7001414141400004122140800020151090693
:1054E70000324979413E007E1111117E007F494902
:1054F700493E003E41414122007F4141221C007F3D
:1055070049494941007F09090901003E4149497A52
:10551700007F0808087F0000417F410000204041CC
:105527003F01007F08142241007F40404040007F38
:105537000204027F007F0408107F003E4141413E84
:10554700007F09090906003E4151215E007F0919C4
:1055570029460046494949310001017F0101003FC1
:105567004040403F001F2040201F003F4038403F41
:1055770000631408146300030478040300615149AD
:10558700454300007F4141000015167C16150000B9
:1055970041417F00000402010204004040404040B6
:1055A700000001020400002054545478007F48444E
:1055B700443800384444442000384444487F003885
:1055C7005454541800087E090102000C5252523EEE
:1055D700007F080404780000447D40000020404418
:1055E7003D00007F102844000000417F4000007EFE
:1055F700020C027C007E0402027C003844444438DA
:10560700007C1414140800081414187C007C080487
:10561700040800485454542000043F444020003CF0
:105627004040207C001C2040201C003C4030403C77
:10563700004428102844000C5050503C0044645447
:105647004C440000083641000000007F00000000C5
:10565700413608000008040810080008082A1C083A
:1056670000081C2A08080004027F02040010207F9B
:105677002010001C2A322A1C001C2244221C001164
:105687000A040A11000705070000000000000000D7
:1056970000000000000000000000000038FCFC389B
:1056A70000000000000D0D000000000E1E00001E8F
:1056B7000E00000000000000000020F8F820F8F8B5
:1056C7002000020F0F020F0F0200387C444747CC1F
:1056D70098000306041C1C07030030300080C060DC
:1056E70030000C060301000C0C0080D87CE4BCD809
:1056F7004000070F0808070F080000101E0E0000E3
:10570700000000000000000000000000F0F80C049A
:105717000000000003070C0800000000040CF8F06C
:1057270000000000080C0703000080A0E0C0C0E0F4
:10573700A0800002030101030200008080E0E080F6
:1057470080000000000303000000000000000000CC
:1057570000000000101E0E00000080808080808006
:1057670080000000000000000000000000000000B2
:1057770000000000000C0C00000000000080C0606A
:1057870030000C06030100000000F8FC04C424FCF0
:10579700F800070F0908080F0700001018FCFC00A5
:1057A70000000008080F0F080800080C84C4643CB8
:1057B70018000E0F0908080C0C00080C444444FCA0
:1057C700B800040C0808080F0700C0E0B098FCFCFC
:1057D7008000000000080F0F08007C7C4444C4C40C
:1057E7008400040C0808080F0700F0F84C4444C470
:1057F7008000070F0808080F07000C0C0484C47CFE
:105807003C0000000F0F00000000B8FC444444FCBB
:10581700B800070F0808080F0700387C444444FC09
:10582700F800000808080C070300000000303000EB
:1058370000000000000606000000000000303000F5
:1058470000000000080E060000000080C06030184D
:10585700080000000103060C08004040404040409B
:10586700400002020202020202000008183060C073
:10587700800000080C0603010000181C04C4E43C67
:1058870018000000000D0D000000F0F808C848F8E7
:10589700F000070F080B0B0B0100E0F0988C98F055
:1058A700E0000F0F0000000F0F0004FCFC4444FC55
:1058B700B800080F0F08080F0700F0F80C04040CD5
:1058C700180003070C08080C060004FCFC040CF87D
:1058D700F000080F0F080C07030004FCFC44E40C5D
:1058E7001C00080F0F08080C0E0004FCFC44E40C15
:1058F7001C00080F0F0800000000F0F80C84848CCF
:10590700980003070C0808070F00FCFC404040FC08
:10591700FC000F0F0000000F0F00000004FCFC0448
:1059270000000000080F0F08000000000004FCFC46
:105937000400070F08080F07000004FCFCC0F03C38
:105947000C00080F0F00010F0E0004FCFC04000000
:105957000000080F0F08080C0E00FCFC387038FC1C
:10596700FC000F0F0000000F0F00FCFC3870E0FC7C
:10597700FC000F0F0000000F0F00F0F80C040CF8EC
:10598700F00003070C080C07030004FCFC44447CEC
:105997003800080F0F0800000000F8FC040404FC9E
:1059A700F800070F080E3C3F270004FCFC44C4FC2A
:1059B7003800080F0F00000F0F00183C6444C49C08
:1059C7001800060E0808080F0700001C0CFCFC0C4A
:1059D7001C000000080F0F080000FCFC000000FC82
:1059E700FC00070F0808080F0700FCFC000000FC7C
:1059F700FC000103060C06030100FCFC008000FC10
:105A0700FC00030F0E030E0F03000C3CF0C0F03C2C
:105A17000C000C0F0300030F0C00003C7CC0C07C83
:105A27003C000000080F0F0800001C0C84C4643CF5
:105A37001C000E0F0908080C0E000000FCFC0404F3
:105A4700000000000F0F080800003870E0C0800059
:105A570000000000000103070E0000000404FCFC26
:105A67000000000008080F0F0000080C0603060CD2
:105A77000800000000000000000000000000000017
:105A87000000202020202020202000101E0E0000D3
:105A97000000000000000000000000A0A0A0E0C07F
:105AA7000000070F0808070F080004FCFC2060C06F
:105AB7008000080F0708080F0700C0E020202060BB
:105AC7004000070F0808080C040080C06024FCFC95
:105AD7000000070F0808070F0800C0E0A0A0A0E01B
:105AE700C000070F0808080C040040F8FC440C1815
:105AF7000000080F0F0800000000C0E02020C0E0F1
:105B07002000276F48487F3F000004FCFC4020E04E
:105B1700C000080F0F00000F0F00000020ECEC0082
:105B270000000000080F0F0800000000000020EC34
:105B3700EC0000307040407F3F0004FCFC80C060F8
:105B47002000080F0F01030E0C00000004FCFC00EE
:105B570000000000080F0F080000E0E060C060E0F0
:105B6700C0000F0F000F000F0F0020E0C02020E043
:105B7700C000000F0F00000F0F00C0E0202020E042
:105B8700C000070F0808080F070020E0C02020E02A
:105B9700C000407F7F48080F0700C0E02020C0E01A
:105BA7002000070F08487F7F400020E0C06020608A
:105BB700C000080F0F080000000040E0A020206090
:105BC7004000040C09090B0E04002020F8FC2020DB
:105BD70000000000070F080C0400E0E00000E0E010
:105BE7000000070F0808070F080000E0E00000E0CA
:105BF700E0000003070C0C070300E0E0000000E0F2
:105C0700E000070F0C070C0F07002060C080C06082
:105C17002000080C0703070C0800E0E0000000E084
:105C2700E000474F4848683F1F00606020A0E060E1
:105C370020000C0E0B09080C0C00FFBDFFFFBDFF79
:105C470000007F404040407F0000FF81818181FF4D
:105C570000007F5E7F7F5E7F0000FF2D3F3F2DFFAF
:105C670000007F424242427F0000FFA1E1E1A1FF25
:105C770000007F424343427F0000FF21212121FF93
:105C870000007F5A7E7E5A7F00000000000000005F
:105C970000000000000000000000000000000000FD
:105CA7000000F8888888888F020488502000000048
:105CB70000000007020100000000000000000000D3
:105CC70000000000000000000000000000000000CD
:105CD700000080800000000080C0603018000001D4
:105CE7000306060301000000000040A01008041E80
:105CF70010101010F00000000102040F0101010153
:105D07000100F8888888888F0204885020000000E6
:105D1700000000070201000000000002020202FE6C
:105D270002020202000008080808080F080808080D
:105D370008002010FC030807FC24242404000000AA
:105D47000F0000000F01010101008868FF4802FAF7
:105D5700AFAAAFFA020000000F000A0A0603060AFC
:105D67000A00084848C8484808FF08090A00080800
:105D770008070404040003040E0020222222E23E46
:105D8700E222222220000804020100000708080876
:105D97000E0098D4B388004848FF24A526000404C1
:105DA70002020808040305080E00FA4A3E0A3E4AA2
:105DB700FA00E2223E000F05050505050F0007085A
:105DC7000E001017D555577D5755D51710000808E1
:105DD7000F08080E08080F0808001C0BEAAEAAAC4B
:105DE700ABAAEE0A1A0000000F0A0A0A0A0A0A0EEC
:105DF700000022FE22007F4949FF49497F0004072E
:105E070002080909090F0909090011F200F9A9ABEC
:105E1700FDADABF800000807080B08080B080A0BD4
:105E270008001011F200FAABAEAAAAABFA000804F8
:105E370003040B0A0A0A0A0A0B001011F20050CFDA
:105E470041414FD01000000007020808050205086D
:105E570008008282BAAAAAABAAAABA8282000F0055
:105E6700000E0A0A0A0E00080F0098D4B38802FE33
:105E77008202322EE0000404020A06010805020528
:105E8700080010210200DF151515D51F8000040238
:105E970001000F09050007090C0088FF48004CA402
:105EA700958694A44C00080F00000808080F0808FE
:105EB7000800008292DAD6B2B19189C18000080445
:105EC7000200080F00000204090098D4B388006498
:105ED700D44DC654E4000404020208040300070872
:105EE7000C007800FF484444FF44447C4000000015
:105EF7000F0804030003040808008888FF4800AA65
:105F0700AAFFAAFA220000080F000806080F0A0ACB
:105F17000A000404FC040408FF080808F800020249
:105F27000109050300000808070004F65554F600A8
:105F3700CF1412911800000F01090F00070A090872
:105F47000E000E088878CF484849CA08080004029E
:105F57000908040502050408080080FEABAAFE0034
:105F6700488808FF0800040201080F000009080F0D
:105F77000000342CF7A4E8A4EA09CA04E8000101E8
:105F87000F000F020F0003080F00801E101010FFF4
:105F97001010101E800007040404040704040404FE
:105FA7000F0000000181720C7080000000000804DF
:105FB700020100000001020408000002E20202FEE2
:105FC70042424242000008080F08080F0808080864
:105FD700080000FE12729212111191710000080759
:105FE7000808040502050408080020FEABFE000CA3
:105FF700E40586442C000807080F00000709080875
:106007000E0008FFA9A9A9FBADA9A9FF0800080A66
:106017000A0A0A0F0A0A0A0A0800FE2222FE80FC60
:1060270084FF84FC800007020207080402010204BF
:10603700080024F2090EA8AFA81EE807FC00000F0D
:1060470000080700070A04030C0011F20000FF21F3
:10605700A9BDA921FF0000070208070003020B08DA
:106067000F0020AAB2E3B2AA00FE12F21100040246
:10607700080F000A0403000F0000322AE608AAAA44
:10608700FFAAAABE08000906050A0A0A0F0A0A0A91
:106097000A008888FF48A4ACB5E6B4ACA4000008A1
:1060A7000F00080A0B04040B0800FE0080FF2010F5
:1060B700EF08887808000301000F080402010204B2
:1060C7000800028A529AD6B3D28A528A0200020282
:1060D7000202020F020202020200A0908E8888FFCD
:1060E70088888880800008080402010001020408EB
:1060F700080010FC03045454555654540400000F70
:1061070000000F050505050F0000463282B2466BF9
:10611700524A62126600000E0808080F0808080EA7
:10612700000042F22EE2013D2121213FE00000075D
:1061370002070101010109080700909048542392C2
:106147004A6652C040000808080905040302010016
:10615700000000F01010101F121212F202000805C2
:1061670001050901050901050800CF09F94F844810
:10617700FF00FF4884000704030208040300070820
:106187000E0010DE10FF1292F90DEB09F900090855
:1061970004020100090403040900A86A3FAA6C0A63
:1061A70010EF08F8080002020A0F010108050205AE
:1061B700080098D4B38814745CF74444440004047A
:1061C70002020403080F0001060010D2565A525368
:1061D700525A56D21000000F050505050505050F93
:1061E700000044348506942410EF08F808000804DA
:1061F70002010204080403040800404242FE42422E
:1062070042FE42424000000806010000000F000065
:1062170000004048494A48F8484A494840000808A9
:10622700040201000102040808001212EABFA0A03C
:10623700A7AAEA090C0000000F020202020A0F00D7
:106247000000202224E8203F20E824222000080420
:1062570002010000000708080E00224480E41CC564
:106267003E54947404000402000F01080502050857
:106277000800C0405F55D515D5555F40C0000F05D4
:1062870005050F000F0505050F0000FF05252DF576
:106297002525F52D270008070109050301010F0131
:1062A7000100007C555654FC5456557C00000101F2
:1062B7000101010F01010101010000FE0202F2923A
:1062C70092F20202FE00000F040404040404040412
:1062D7000F002010FC2324E4BCA7A4A42000000086
:1062E7000F0000020204060900002020AF692929D7
:1062F70029292F20200000000101010101090907B8
:1063070000002010FC03FE2222FE212120000000B5
:106317000F000702050803040F0000FE0242424275
:10632700FA42424202000807080808080F08090A4B
:1063370008008888FF4800FE42C25252CE0000087B
:106347000F00000F08050205080092BFAABACFBACE
:10635700C4AB92AEC20000020E0A0A0A0A0A0E0273
:10636700000000FE909F10FE12F2129171000807C4
:10637700000F04030805020508000404846414FFE1
:1063870014648404040002010202020F02020201E3
:10639700020000FEAAAAABAAAAAAAAFE0000080643
:1063A700000608090A080C020C001010282422E134
:1063B70022242810100008090909090F09090909E9
:1063C70008008888FF48480222222222FE0000088F
:1063D7000F000004040404040F008888FF48F297A4
:1063E70092F29297F20000080F000F0404070404CA
:1063F7000F00FC0404E6252424E40404FC000F0039
:1064070000030202020308080F002027A5A567382A
:1064170067A5AD372000010F0A0A0E000E0A0A0F02
:1064270001004040404040404040404040000000A4
:106437000000000000000000000000040404040441
:10644700040404040000040404040404040404040D
:10645700040000024242424242424202000008084F
:106467000808080808080808080000FE02827E02DB
:10647700027E8282FE00000F050404040404040463
:106487000F00022222E23E222222E2020000080836
:106497000E09080808080F080800101010D0111678
:1064A70010509010100008040300000000000003C3
:1064B7000C0020202020FF101010101010000000EA
:1064C70000000708080808080E00000000FE00008A
:1064D700007F8000000008040300000000000106A0
:1064E7000800080808FF080808F80000000008046A
:1064F70003000000000708080E002020202020FFCE
:1065070020202020200000000000000F00000000D5
:10651700000000FE02EA2A2A2A2AEA02FE00000FE9
:1065270000010101010109080F00E90AE800AEA80E
:10653700A8EFA8A8AE00040502000F00070007088F
:106547000F00445455D6745C545655544400040205
:10655700090909090F09090908001011F200109229
:1065670052321292100008040304090909090909A3
:106577000B000403FAAEAAA8ACABFA0602000202AB
:106587000B060202020E030202008888FF484A3205
:1065970026EA2129050000080F000D09090F09093E
:1065A7000D008868FF28404242FE4242400000003A
:1065B7000F000000000F000000008868FF28442437
:1065C700D506D424440000000F000808050205087A
:1065D700080004082010FC2724FD262404000402D8
:1065E70001000F09090F0909080008F8494AD008EE
:1065F700D714F414340008070808070807080F0918
:10660700090098F7949442C27E4242FE0000000FB0
:106617000408080F0808080F080008F4535252F23C
:106627005A5650F000000807010101070101090F40
:10663700000000FE0A8ABEAAABAABE8A0A000807A3
:106647000008090A04040A09080000FC2424262576
:10665700242424FC0000000F090909090909090F6E
:10666700000010D23292100008FF0808F800030259
:10667700020203080601080807007800FF08C43F64
:10668700C404F444240000000F04030804020106B4
:10669700080004027DD555555555557D0100000A62
:1066A700090B050505050B0908005F5551FF555FE7
:1066B7000010FF1214000A060A050905080700075B
:1066C70008001011F2000000C03FC00000000000E9
:1066D7000702090601000106080000024242424281
:1066E700424242020000080808080808080808088B
:1066F700080008F4535252F25A5650F000000807A7
:10670700010101070101090F0000018BFDA9AFF885
:10671700A9ABFD810F00020A060302020203060A63
:106727000200445455D6745C545655544400040230
:10673700090909090F090909080011F2007A4ACA6B
:10674700FFCA4A7A02000807080A09080F08090A57
:10675700080000FF05A5A5A5E5555515070008077D
:1067670002020202070909090C008445F6AC0A5F18
:10677700524A5F4A120000000F000503090F010388
:106787000500C15D55D5555DC100FC00FF000F0533
:10679700050705050F0001080F0000FC4444FF44EE
:1067A70044FF4444FC00000F0404070404070404E6
:1067B7000F0010FF108848FF0808F8408000000FFE
:1067C700000806010808070001001011F200186010
:1067D700810680601C000000070209040201020410
:1067E70008008888FF48BCAAA0FFA0AABE0000082E
:1067F7000F0008090A04040A0900180A4A6ADA4F4E
:106807004A2A8A0A180000090501090F010105092A
:1068170000008868FF2840FE0202FE00000000001A
:106827000F080403000007080E0000FC2424E404FA
:10683700FF0485660400080700020B040201020436
:106847000F000404FC040408FF080808F80002020B
:106857000109050300000808070002FE5252FE0264
:1068670004FC04FC0000020302020F0108040304F5
:10687700080010220400F254505F5054F200040242
:1068870001000F01010101090F008888FF487057B7
:1068970075857557700000080F000905030F03057C
:1068A70009002010FC030807FC242424040000002E
:1068B7000F0000000F010101010004D3525652F4EA
:1068C70053525672020008090503010F0101090915
:1068D7000700020480201887748404140C00020146
:1068E700080402010001020408008868FF2840FE2E
:1068F7000202FE00000000000F0804030000070862
:106907000E0010FC0380FE2AEA2BEA2AEE00000F95
:1069170001000F01070107090F0008F4131212D233
:106927001A1610F000000809040402010202040507
:1069370008008897F4949400F888FF88F80000000E
:106947000F04020001000F00010000FE0202020214
:106957000202020202000807000000000000000017
:10696700000042F22EE200F453F25A56F0000007FC
:1069770002070807010701090F0008FAAAAAAAFED9
:10698700A9A9A9F90800080A0A0A0A0F0A0A0A0A9D
:1069970008000000FCA4A4A5A6A4A4A4BC000806A3
:1069A700010F0404040404040F0020108E8888FFDC
:1069B70088888808000008080808080F08080808D9
:1069C700080010220400FC4444FF4444FC00040275
:1069D70001000F04040704040F0000F9020001017D
:1069E70001010101FF00000F00000000000008087E
:1069F7000F008888FF4800CF54545252D90000082E
:106A07000F00000F050505050F00482A987F284A43
:106A170010EF08F80800090B05050B00080502052B
:106A27000800FD01FD2525FD2525FD01FD000704C5
:106A370005050505050505040F0002F21212FA56B1
:106A470052F21212F200000F0404070505070404AE
:106A57000F0004F49494F404FF04C53604000404FE
:106A670004020A04020102040F008888FF48004C50
:106A7700C47546C44C0000080F000808050202054B
:106A870008001232521732D2124F2A0A020009099D
:106A97000503010F010305090900007C555654FC45
:106AA7005456557C000001010101010F010101014C
:106AB700010094F39264DC88AAFFAABE0800000FC5
:106AC700040A070A0A0F0A0A0A0088780F88784218
:106AD70042F24A464000080502050800080F000078
:106AE70000001011F2000828C80808FF0800080471
:106AF70003040808080A0A0B080000FE02FAAAAEF7
:106B0700AAAAAAFA02000807080402080F0002044A
:106B1700080088780FF800D8545350D8300008057B
:106B2700020D000F0404040F00008888FF4800FED0
:106B3700AAAAFAAAAE0000080F0806010F04040467
:106B47000F00FF31CF48D20AFEABAAFA02000F02AC
:106B5700010807080B080A0B080000FE02EAAAEA68
:106B6700029F629BC20009060006080A0D080C0274
:106B77000D0090523E12127E12003E80FF00080A5E
:106B87000A0A0A0F0A0A0A0A08000488FF001010F6
:106B9700D03FD012140001000F00080601000106C3
:106BA7000800444424140CA74C1424444400040350
:106BB700000708080B080C0106001011F200282630
:106BC700E43FE4242000080403040A090808090A2A
:106BD7000B008888FF4821A395E995A320000008AA
:106BE7000F000202020F0202020010D04854D21115
:106BF700D25448D010000007020207000F00040714
:106C0700000000108894E7C4A4A4948C80000101BC
:106C1700000F0404040404040F0004027DD5555535
:106C27005555557D0100000A090B050505050B099A
:106C37000800009E8080BF90888794A40400080FF6
:106C470008080F080F08080F08008445F62C40FEB7
:106C570002FA02FE000000000F0008040300070804
:106C67000C0018D654FF54D410FC0000FF00000796
:106C7700000F0407000108080F00FC0000FF0002D6
:106C870022222222FE000108060100040404040453
:106C97000F0010FC03086888090A08E80800000FBD
:106CA7000008080B080C0B08080020A424FF240088
:106CB700F212121E80000807040F0908090A0A0ABF
:106CC7000B0098D4B3084844AB922A46400004040A
:106CD7000202000202040508000020102C23E02015
:106CE7002023EC1020000008040300080808070010
:106CF7000000FC242424FF242424FC0000000301BA
:106D070001010709090909080E00929A96F2929A59
:106D1700B200FC00FF00080808070404040001088B
:106D27000F00FE02FA02FE00C0407F48C8000904B7
:106D3700030409000F0404040F0010101010D03FC3
:106D4700D010101010000808040300000003040806
:106D5700080000C0300000FF000010608000010044
:106D67000008080F000000000100808AB28282FE3E
:106D77008282A29A800000000000000F000000003D
:106D870000002C24A42425E6242424242C00080411
:106D97000304080F090909090800FE2222FE00085A
:106DA700488808FF08000702020700000009080FCB
:106DB700000010101010D03FD0101010100008085D
:106DC7000403000000030408080000C0300000FFAF
:106DD70000001060800001000008080F000000009C
:106DE70001001008FC0BEA2A2A2A2EE808000806E8
:106DF70001000708080909080E00FE0232CE102814
:106E0700A42324A810000F020201090E080B0C0B83
:106E1700080024C404C43C00488808FF080008068A
:106E270001020C000009080F000000FF10101000FD
:106E3700FF2010080400000F0402010007080808DB
:106E47000E00040484744F44C44444440400040200
:106E5700090808080F0808080800040484E45C47C8
:106E6700444444C404000201000F04040404040F52
:106E770000008092929292FE919191918000000081
:106E87000008080F00000000000004FCFC44447CDC
:106E9700380004FCFC44080F0F0800000000080F2E
:106EA7000F08447C3800FCFC387038FCFC000000FC
:106EB70000000F0F0000000F0F008868FF48102820
:106EC700A42324A8100000000F00090E080B0C0BC8
:106ED700080094F39200F21410DF1014F200000F70
:106EE700040809040201020409001011F20020201D
:106EF70020FF20202000000007020100000F0000F3
:106F0700000020203EA020BF242424A42000000A43
:106F1700090804070202010000001011F24044FFB3
:106F27004444FF444000080403040A0908080B0806
:106F370008002010FC0382BAAAABAABA820000009C
:106F47000F0001020A0E020201000000F800000013
:106F5700FF101010000008080F0808080F0808089D
:106F6700080000FE02FAAAAEAAAAAAFA02000807B7
:106F7700080402080F000204080020AAB2E3B2AA1C
:106F870000FE12F211000402080F000A0403000FAA
:106F9700000098D4B38800FE929292FE0000040489
:106FA7000202080F0808080F08001090A8A4A2A161
:106FB700A2A4A8901000000F040404040404040F02
:106FC700000000FE2AA90028E72121EF0800020F90
:106FD70001000808050205080800080808887F0856
:106FE700080808F80000080402010000080808075C
:106FF7000000048404CF0424C40F048404000403A1
:107007000007080808080E0007000000FE9090908F
:10701700909F9010100008060100000000000F006C
:1070270000002010FC03405E52F2525E4000000058
:107037000F000402010F010204008444F40C87943A
:1070470094D4B494840000000F000000080F0000DF
:107057000000224422EAAAAABFAAAAEA220004023E
:10706700000F020202020A0F00000C25ADAD45BF5A
:1070770045ADAD250C000101000505050B09000113
:107087000100040404FC2526242424E40400080445
:10709700030000000808080700000000F8000000CF
:1070A70000000000C3FFFF7F07030300000000E0AC
:1070B700F8FC1E060303030307FEFCF80000C3FFEA
:1070C700FF7F0703030000000000C3FFFF7F0703E4
:1070D70003000000000000000000000000000000A6
:1070E7000000000000000000000000303000000039
:1070F7000000000000000000000000000000000089
:107107003030000000000000000000000000000018
:1071170000000000000000F800000000FF00000071
:107127000058585C5F5F5F5858585C5E4741404362
:10713700474F5C585858584C4F474358585C5F5F07
:107147005F5858585C5E4759585C5F5F5F5800420C
:107157007E427E427E4200000000000000000000E8
:107167000000000000000000000000030300000012
:107177000000000000000000000000000000000008
:1071870003030000000000000000000000000000F2
:1071970000000000000000FF00000000FF000000EA
:1071A7000000784E495959494E7800000000000008
:1071B7000000000000081422410000000000000049
:1071C7000000003E5149453E003E5149453E0024DE
:1071D700003E5149453E003E5149453E00000000F2
:1071E7000000004122140800003E5149453E003E80
:1071F7005149453E0040003E5149453E001F204051
:10720700201F00003E227F415D5D5D5D5D5D5D5D30
:107217005D5D417F000000FF0000F048FF48F0007F
:1072270000FE01010101FE00180E19017D46447C94
:1072370000003E5149453E0040003E5149453E0051
:107247003E5149453E001F2040201F00000000001E
:107257000000000000000000000000000000000027
:107267000000000000000000000000000000000017
:107277000000000000000000000000000000000007
:1072870000000000000000000000000000000000F7
:107297000000000000F048FF48F00102FF02010073
:1072A70000FF00000000FF001824444E0A0A0A0EDF
:1072B70000003E5149453E0040003E5149453E00D1
:1072C7003E5149453E001F2040201F00000000009E
:1072D70000000000000000000000000000000000A7
:1072E7000000000000000000000000000000000097
:1072F7000000000000000000000000000000000087
:107307000000000000000000000000000000000076
:1073170000000000000102FF02010000FF00000062
:1073270000FF00000000FF00011F012030383C3E35
:1073370000000000000000000000000000003E51B7
:1073470049453E0046261008646200000000000020
:107357000000000000000000000000000000000026
:107367000000000000000000000000000000000016
:107377000000000000000000000000000000000006
:1073870000000000000000000000000000000000F6
:1073970000000000000000FF00000000FF000000E8
:1073A70000FF80000080FF000F0507486070787CB1
:1073B70000000000000000000000000000003E5137
:1073C70049453E00462610086462000000000000A0
:1073D70000000000000000000000000000000000A6
:1073E7000000000000000000000000000000000096
:1073F7000000000000000000000000000000000086
:107407000000000000000000000000000000000075
:1074170000000000000000FF000000000300000063
:107427001010101010101010101010101010101055
:10743700101010101010103854547C545438101079
:107447001010101010101010101010101010101035
:1074570010101010101000000000000000001010A5
:107467001010101010101010101010101010101015
:107477001010101010103854547C54543810101039
:1074870010101010101010101010101010101010F5
:1074970010101010000000030000000000000000A2
:1074A70000000000000000000000000000000000D5
:1074B700000000000000000000FF010101F90909B8
:1074C700794141790909794141790909090101FF9F
:1074D70000000000000000000000000000FE0202A3
:1074E700FE000008C8FF4880F45F5454545FF4045A
:1074F700001010FF10908484FF848484FC800010A7
:1075070028E7242400A4BFA4A4BFA420002021E6C8
:1075170000004F4949C949494F00000000000000D9
:107527000000000000000000000000000000000054
:10753700000000000000000000FF0000809B00002A
:1075470018809880980018C02020C000000000FF15
:10755700000000000000000000000000003B2A2A95
:107567003B000001003F002425150D070D152524BC
:10757700000404070222100C0300030C1020000172
:10758700013F1109003F242424243F000000001F6D
:107597000822120A0603060A122200000000000051
:1075A70000000000000000000000000000000000D4
:1075B700000000000000000000FF0000E5A5A0A0FB
:1075C700E0A7A7A7E7A0A0A7E8A8A7A0E00000FF5B
:1075D70040404040404040404040404040404040A4
:1075E7004040404040404040404040404040404094
:1075F7004040404040404040404040404040404084
:1076070040404040404040C00000000000000000F3
:107617000000000000000000000000000000000063
:107627000000000000000000000000000000000053
:107637000000000000000000000FF8080B0A0A0A0B
:107647000B0A0A0AFB0A0A0A0B0A0A0A0B08F80FAE
:1076570005050505050505050505050505FD0101E3
:107667000101010101010101010101010101010103
:10767700FF00000000000000000000000000000004
:1076870000000000000000FF0000000000000000F4
:1076970000000000000000000000000000000000E3
:1076A70000000000000000000000000000000000D3
:1076B70000000000000000000000FF0000000000C4
:1076C70000000000FF000000000000000000FF00B5
:1076D70000000000000000000000000000FF0000A4
:1076E7000000000000000000000000000000000093
:1076F700FF00000000000000000000000000000084
:1077070000000000000000FF000000000000000073
:107717000000000000000000000000000000000062
:107727000000000000000000000000000000000052
:1077370000000000000000000000FF000000000043
:1077470000000000FF000000000000000000FF0034
:1077570000000000000000000000000000FF000023
:107767000000000000000000000000000000000012
:10777700FF00000000000000000000000000000003
:1077870000000000000000FF0000000000000000F3
:1077970000000000000000000000000000000000E2
:1077A70000000000000000000000000000000000D2
:1077B70000000000000000000000FF0000000000C3
:1077C70000000000FF000000000000000000FF00B4
:1077D70000000000000000000000000000FF0000A3
:1077E7000000000000000000000000000000000092
:1077F700FF00000000000000000000000000000083
:1078070000000000000000FF000000000000000072
:107817000000000000000000000000000000000061
:107827000000000000000000000000000000000051
:10783700000000F8888800F8A8A800000000F88871
:107847008800F8808000F8205000000000F810F849
:107857000088F88800B8A8E80070887000000088E1
:10786700F88800F8287880003828F8000000000021
:10787700F810F80070887000B8A8E80088F8880049
:10788700000000000000F8888800B8A8E800F81099
:1078970020F80000000000000000FFFFFFFFFFFFCF
:1078A700FFFFFFFFFFFFFFFFFFFFFFFFFFFFFFFFE1
:1078B700FFFFFFFFFFFFFFFFFFFFFFFFFFFFFFFFD1
:1078C700FFFFFFFFFFFFFFFFFFFFFFFFFFFFFFFFC1
:1078D700FFFFFFFEFEFEFEFDFDFDFDFBFBFBFBF7D5
:1078E700F777776F6F7F3F3FFFFFFFFFFFFFFFFFD9
:1078F700FFFFFFFFFFFFFFFFFFFFFFFFFFFFFFFF91
:10790700FFFFFFFFFFFFFFFFFFFFFFFFFFFFFFFF80
:10791700FFFFFFFFFFFFFFFFFFFFFEFEFEFEFDFD78
:10792700FDFDFDFDFBFBFBFBFBFBFBF7F7F7F7F7AC
:10793700F7EFEFEFEFEFEFEFDFDFDFDFDFDFBFBF08
:10794700BFFF3F3F1F1F1F1F1F0F0F0F0F0F070700
:1079570007070707FF0303010101010100000000FA
:107967000000000000000000FFFFFFFFFFFFFFFF18
:10797700FFFFFFFFFFFFFFFFFFFFFFFFFFFFFFFF10
:10798700FFFFFFFFFFFFFFFFFFFFFFFFFFFFFFFF00
:10799700FFFFFFFFFFFFFFFFFFFFFFFFFFFFFFFFF0
:1079A700FFFFFFFFFFFFFFFFFFFFFFFFFFFFFFFFE0
:1079B700FFFFFFFFFFFFFFFFFFFFFFFFFFFFFFFFD0
:1079C700FFFF0000000000000000000000000000B2
:1079D70000000000FF0000000000000000000000A1
:1079E7000000000000000000FFFFFFFFFFFFFFFF98
:1079F700FFFFFFFFFFFFFFFFFFFFFFFFFFFFFFFF90
:107A0700FFFFFFFFFFFFFFFFFFFFFFFFFFFFFFFF7F
:107A1700FFFFFFFFFFFFFFFFFFFFFFFFFFFFFFFF6F
:107A2700FFFFFFFFFFFFFFFFFFFFFFFFFFFFFFFF5F
:107A3700FFFFFFFFFFFFFFFFFFFFFFFFFFFFFFFF4F
:107A4700FFFF020202020202020202020202020215
:107A570002020202FF020202020202020202020202
:107A67000202020202020202FFFFFFFFFFFFFFFF07
:107A7700FFFFFFFFFFFFFFFFFFFFFFFFFFFFFFFF0F
:107A8700FFFFFFFFFFFFFFFFFFFFFFFFFFFFFFFFFF
:107A9700FFFFFFFFFFFFFFFFFFFFFFFFFFFFFFFFEF
:107AA700FFFFFFFFFFFFFFFFFFFFFFFFFFFFFFFFDF
:107AB700FFFFFFFFFFFFFFFF7F7F7F7F7F7FBFBF4F
:107AC700BFFFC0C080808080808000000000000071
:107AD70000000000FF0000000000000000000000A0
:107AE7000000000000000000FFFFFFFFFFFFFFFF97
:107AF700FFFFFFFFFFFFFFFFFFFFFFFFFFFFFFFF8F
:107B0700FFFFFFFFFFFFFFFFFFFFFFFFFFFFFFFF7E
:107B1700FFFFFFFFFFFFFFFFFFFFDFDFDFEFEFEFFE
:107B2700EFEFEFF7F7F7F7F7FBFBFBFBFBFBFDFDD2
:107B3700FDFDFDFEFEFEFEFEFFFFFFFFFFFFFFFF59
:107B4700FFFFFFFFFFFFFFFFFFFFFFFFFFFFFFFF3E
:107B5700FEFEFEFEFFFEFCFCFCFCFCF8F8F8F8F865
:107B6700F87070B0B0D0F0E0FFFFFFFFFFFFFFFF3E
:107B7700FFFFFFFFFFFFFFFFFFFFFFFFFFFFFFFF0E
:107B8700FFFFFFFFFFFFFFFFFFFFFFFFFFFFFFFFFE
:107B9700FFFFFFFFFFFFFFFFFFFFFFFFFFFFFFFFEE
:107BA700FFFFFFFFFFFFFFFFFFFFFFFFFFFFFFFFDE
:107BB700FFFFFFFFFFFFFFFFFFFFFFFFFF7F7FFFCE
:107BC7007FFF7F7F7F6FFFFFFF7F7F7F7FFFFFFF4E
:107BD7007F7F6F0FFFDF6F6F77F7FB7B7DFD7DFE8D
:107BE7007E7FFF7F7F7FFFFFFFDF0FFFFFFF1FEF1F
:107BF700EF1FFFFFFFFFFFFFFFFFFFFFFFFFFFFF7E
:107C0700FFFFFFFFFFFFFFFFFFFFFFFFFFFFFFFF7D
:107C1700FFFFFFFFFFFFFFFFFFFFFFFFFFFFFFFF6D
:107C2700FFFFFFFFFFFFFFFFFFFFFFFFFFFFFFFF5D
:107C3700FFFFFFFFFFFFFFFFFFFFFFFFFF7F7CB39C
:107C4700BCD3DCDFEFF0F7FFFFF7F0F7FFF0F7FF4C
:107C5700F8F7F7F0F7F8F7F7F7F8FFFFFCF3FCF39F
:107C6700FCFFF4F5F5F3FFFFFFF7F0F7FFFFF8F779
:107C7700F7F8FFFFFFFFFFFFFFFFFFFFFFFFFFFF1C
:107C8700FFFFFFFFFFFFFFFFFFFFFFFFFFFFFFFFFD
:107C9700FFFFFFFFFFFFFFFFFFFFFFFFFFFFFFFFED
:107CA700FFFFFFFFFFFFFFFFFFFFFFFFFFFFFFFFDD
:107CB700FFFFFFFFFFFFFFFFFFFFFFFFFFFFFFFFCD
:107CC700FFFFFFFFFFFFFFFFFFFFFFFFFFFFFFFFBD
:107CD700FFFFFFFFFFFFFFFFFFFF3F1F0F07070329
:107CE7000383C1F1F9FFFFFFFFFFFFFFFFFFFFFF67
:107CF700FFFFFFFFFFFFFFFFFFFFFFFFFFFFFFFF8D
:107D0700FFFFFFFFFFFFFFFFFFFFFFFFFFFFFFFF7C
:107D1700FFFFFFFFFFFFFFFFFFFFFFFFFFFFFFFF6C
:107D2700FFFFFFFFFFFFFFFFFFFFFFFFFFFFFFFF5C
:107D3700FFFFFFFFFFFFFFFFFFFFFFFFFFFFFFFF4C
:107D4700FFFFFFFFFFFFFF7F3F3F1F1F0F0F0F0FBC
:107D57000F1F1F3F3F3F7F63E0E0F0F0783C3E1E80
:107D67001F0F0F0F0F0F0F1F1F3F3F7FFFFFFFFF5C
:107D7700FFFFFFFFFFFFFFFFFFFFFFFFFFFFFFFF0C
:107D8700FFFFFFFFFFFFFFFFFFFFFFFFFFFFFFFFFC
:107D9700FFFFFFFFFFFFFFFFFFFFFFFFFFFFFFFFEC
:107DA700FFFFFFFFFFFFFFFFFFFFFFFFFFFFFFFFDC
:107DB700FFFFFFFFFFFFFFFFFFFFFFFFFFFFFFFFCC
:107DC700FFFF3F0F0301000000000000000000005C
:107DD7000000000000000000000103010000000097
:107DE700000000000000000000C0E0F8FCFFFFFFFB
:107DF700FFFFFFFFFFFFFFFFFFFFFFFFFFFFFFFF8C
:107E0700FFFFFFFFFFFFFFFFFFFFFFFFFFFFFFFF7B
:107E1700FFFFFFFFFFFFFFFFFFFFFFFFFFFFFFFF6B
:107E2700FFFFFFFFFFFFFFFFFFFFFFFFFFFFFFFF5B
:107E3700FFFFFFFFFFFFFFFFFFFFFFFFFFFFFFFF4B
:107E4700FF810000000000000000000000000000AB
:107E5700000000000000000000000000000000001B
:107E670000000000000000001F7FFFFFFFFFFFFF73
:107E7700FFFFFFFFFFFFFFFFFFFFFFFFFFFFFFFF0B
:107E8700FFFFFFFFFFFFFFFFFFFFFFFFFFFFFFFFFB
:107E9700FFFFFFFFFFFFFFFFFFFFFFFFFFFFFFFFEB
:107EA700FFFFFFFFFFFFFFFFFFFFFFFFFFFFFFFFDB
:107EB700FFFFFFFFFFFFFFFFFFFFFFFFFFFFFFFFCB
:107EC700FFFFFCE0C0000000000000000000000011
:107ED700000000000000000000000000000000009B
:107EE700000000000000000000000003070FCFFFA4
:107EF700FFFFFFFFFFFFFFFFFFFFFFFFFFFFFFFF8B
:107F0700FFFFFFFFFFFFFFFFFFFFFFFFFFFFFFFF7A
:107F1700FFFFFFFFFFFFFFFFFFFFFFFFFFFFFFFF6A
:107F2700FFFFFFFFFFFFFFFFFFFFFFFFFFFFFFFF5A
:107F3700FFFFFFFFFFFFFFFFFFFFFFFFFFFFFFFF4A
:107F4700FFFFFFFFFFFFFCF0E0C0808000000000A4
:107F5700000000000000808080808080800000009A
:107F6700000000000000008080C0E0F8FCFFFFFF79
:107F7700FFFFFFFFFFFFFFFFFFFFFFFFFFFFFFFF0A
:107F8700FFFFFFFFFFFFFFFFFFFFFFFFFFFFFFFFFA
:107F9700FFFFFFFFFFFFFFFFFFFFFFFFFFFFFFFFEA
:107FA700FFFFFFFFFFFFFFFFFFFFFFFFFFFFFFFFDA
:107FB700FFFFFFFFFFFFFFFFFFFFFFFFFFFF7F7FCA
:107FC7007F7F7F7F7F7F7F7F7F7F7F7F7F7F7E7EBC
:107FD7007E7E7F7F7F7F7F7F7F7F7F7F7F7F7F7FAC
:107FE7007E7E7E7E7F7F7F7F7F7F7F7F7F7F7F7F9E
:107FF7007F7FFFFFFFFFFFFFFFFFFFFFFFFFFFFF8A
:10800700FFFFFFFFFFFFFFFFFFFFFFFFFFFFFFFF79
:10801700FFFFFFFFFFFFFFFFFFFFFFFFFFFFFFFF69
:10802700FFFFFFFFFFFFFFFFFFFFFFFFFFFFFFFF59
:10803700FFFFFFFFFFFFFFFFFFFFFFFFFFFFF0F067
:10804700F0F0F0F0F0F0F0F0F0F0F0F0F0F0F0F029
:10805700F0F0F0F0F0F0F0F0F0F0F0F0F0F0F0F019
:10806700F0F0F0F0F0F0F0F0F0F0F0F0F0F0F0F009
:10807700F0F0FFFFFFFFFFFFFFFFFFFFFFFFFFFF27
:10808700FFFFFFFFFFFFFFFFFFFFFFFFFFFFFFFFF9
:10809700FFFFFFFFFFFFFFFFFFFF000000000000E3
:1080A700001030F0F0F05090D8F8F8F09080808011
:1080B700800000000000000020203030101090F8F1
:1080C700F8783810000000000000000000000000F1
:1080D700C0E0F0B0F8FCCCCCF87030808000000035
:1080E7000000000000404040404878F8F82020E0B9
:1080F700FC3C2C30303030200000000060606060B5
:1081070060602020202020203030101010103030E8
:10811700000000010303131391D1F97F1F1B098985
:108127008F8F8B8880000000000000101010181837
:10813700080808090BFFFFFE84040404060606046A
:1081470004000000003E1E2E2427E7FF7EBE929308
:1081570091911517070303020000000000000006B5
:108167001E1E92D6FEFEB2FFDFCFC9CF0F07030058
:10817700000000000000FEFEFE6247FFFE03FFFF57
:10818700337363FFFFE300000000002030181C0E6C
:1081970007031F3F3F111111101F1F1F030100008D
:1081A700000000000000000000101030707F7F3FCB
:1081B7000700000000000000000000002030381C0D
:1081C7004E476323371F1D1F1F317060606060407B
:1081D7004000000040404042626331331E1E0C0ED7
:1081E70007030100000000000000000000001F1F3F
:1081F70007081E1F1F0C1F1F0008383F3F0F0000F6
:1082070000000000E01010101010101010101010D7
:10821700101010101010101010101010101010E087
:1082270000000000FF000000000000000000000048
:10823700000000000000000000000000000000FF38
:1082470000000000070808080808080808080808C8
:108257000808080808080808080808080808080798
:1082670000000F07030383C323131B1B2BABAB2B8D
:10827700333363C3030303030323131313E3030317
:10828700E3131313230303E3131393E30303070F07
:10829700000000001F3060A0A64646DF9F86868646
:1082A70040301F00000000081111110E00000F11CF
:1082B70011110E00000F1211100F00000000000036
:1082C7000000888888F8888989F989898820A0F832
:1082D700A000F80808F800000020909060005050B7
:1082E700F848408040F8002040000000E0C0C0C0CF
:1082F700D0D8CCC7C0C0C0DFC0C0C0C2C1DFD0CDDE
:10830700C7C0C0DFD0DCC0C4C8C8C7C0C2C1DFC1D6
:10831700D2D0D8CBC4C2C1C0C0E0FC06030101C1A2
:10832700611109090D15D5D515191931618101019A
:10833700010121111111E10101E1111111210101C6
:10834700E1111191E1010101010306FCFF000000A9
:10835700000F18305053A3C3CF8FC3434320180FC8
:1083670000000000081111110E00000F1111110E6D
:1083770000000F1211100F000000000000FFFF00A7
:10838700000012A404F8484848FE4848F800F404DE
:10839700080004040404FC000010F816D454545CCC
:1083A700D4101000FC74AC1048444448102000FF5F
:1083B7003F6040404C43404F4444444744444F404F
:1083C7004F404040404048484F40404C43404F4852
:1083D7004A4A4B4846404F4249484A4D4A4C4A4907
:1083E700603F183C6444C49C180000FCFC0000007B
:1083F700FCFC0000080C84C4643C1800000C0C044E
:1084070084C47C3C0000060E0808080F070000071C
:108417000F0808080F0700000E0F0908080C0C00CA
:0F8427000000000F0F00000000004C4F564521D1
:10B7CC004102CF004102C10041026102C1BD4100F2
:10B7DC003A2A41005F00C1BC410068004100690089
:10B7EC0041006A00410000004100550041029400F4
:10B7FC004100F40041029F00410279054100120012
:10B80C0042035C00004100670041006600410342B6
:10B81C0000410256004100620041007200C1C0C1EB
:10B82C00AA4102580041029E004102A1004102A31C
:10B83C000041006F00410262004102660041027843
:10B84C00004102960041035E004102E501410059AE
:10B85C002341005C4641029A0041029B00C1AC416D
:10B86C0002F8004202E302584202E902584202EB9B
:10B87C0002584202EE02584202D901904202DE0105
:10B88C00904202E101904202E7019041006B33418A
:10B89C00006D3341006E334100703341005B004159
:10B8AC00027703012B0041034E004102BA00410212
:10B8BC00BB004102ED004102CE004B03160000001C
:10B8CC0000000000000000004100110341029946F5
:10B8DC00410265284102B63C4102A73C410065008B
:10B8EC00410061005002FA0000000000000000005E
:10B8FC0000000000000000104C01F402580320006E
:10B90C00C803E800000064012C4802840001020313
:10B91C0004050607410058004102AB004102BF007C
:10B92C004100F300410298024100539C4102BECEFB
:10B93C004102B7324100F00A4202630000C10F41DC
:10B94C0002AA004102F90041031500460354101DE0
:10B95C002A37445141005404410326004800A63CB8
:10B96C003C3C3C3C3C3C3C41006C004100390041BF
:07B97C0002CA034102C000F2
:08E062007F0C7EA8DEFEDFFC4E
:01E06A002293
:04DFD9007FC87E007F
:10DFDD00AD07AC06ED1DAE0470011C4E600512E0E0
:04DFED006280F1223B
:10D76D00EFF00DE4FF12D7B1A3EFF00DE4FF12D7E8
:10D77D00B1A3EFF00DE4FF12D7B1A3EFF00DE4FF6D
:10D78D0012D7B1A3EFF00DE4FF12D7B1A3EFF00D57
:10D79D00E4FF12D7B1A3EFF00DE4FF12D7B1A3EF61
:04D7AD00F00DE4FF98
:10D7B10075C501D3ED94FFEC9400400AEF04F5C365
:10D7C100ED04F5C480068FC3AF058FC475C65A75C5
:06D7D100C6A500AFC22254
:10D9C100E0FB0DE4FF12D9F3A3E0FB0DE4FF12D954
:10D9D100F3A3E0FB0DE4FF12D9F3A3E0FB0DE4FF99
:10D9E10012D9F3A3E0FB0DE4FF12D9F3A30DE0FB81
:02D9F100E4FF51
:10D9F30075C502AE038EC2D3ED94FFEC9400400ACA
:10DA0300EF04F5C3ED04F5C480068FC3AF058FC4DF
:08DA130075C65A75C6A5002274
:0CDFA200E4FF12DFAE7F0212DFAE7F044E
:10DFAE0075C5038FC3E4F5C475C65A75C6A50022A0
:07DFBE00F583E004F07F0190
:10DFC500EFB40102D20DEFB40202D24ED242E49078
:04DFD500006AF022CC
:10BB3900E490037CF0A3F075C783FEEEFD7C00E47E
:10BB4900FF12D7B1EFFD90037DE02DF090037CE06B
:10BB59003CF00EEEB44AE47D4A7C00E4FF12D7B112
:10BB6900AB07EB7B00FA0DE4FF12D7B1EB2FFBE437
:10BB79003AFAE4FDFF12D7B1BFAC0C90037CE06A3E
:10BB89007003A3E06B6009D222D218D23302BCDE63
:10BB99007D027C00E4FF12D7B19002E512D7AC9088
:10BBA900003A12D7ACEF24FF923D0DE4FF12D7B152
:10BBB90090006B12D7AC90006D12D7A39000701251
:10BBC900D7AC90032112D78890034F12D7889000E1
:10BBD9005912D7AC90005C12D7ACEF24FF92400DFC
:10BBE900E4FF12D7B1EF24FF924B0DE4FF12D7B156
:10BBF90090027712D7AC90029A12D7A390027912C9
:10BC0900D7AC90005FEFF07D1DE4FF12D7B1EF24B0
:10BC1900FF922C0DE4FF12D7B1EF24FF921C0DE423
:10BC2900FF12D7B190001212D7AC90005B12D7ACBB
:10BC39009002BF12D7ACEF24FF923C0DE4FF12D75C
:10BC4900B1EF24FF92260DE4FF12D7B1900326EF3E
:10BC5900F07D26E4FF12D7B190028412D76D9000CF
:10BC69005812D7ACEF24FF92180DE4FF12D7B19008
:10BC790002CFEFF09002C112D7ADEF24FF92330D3E
:10BC8900E4FF12D7B1EF24FF924A0DE4FF12D7B1B6
:10BC99009000F312D7AC9002BE12D7AC9002B71243
:10BCA900D7AC900053EFF07D38E4FF12D7B1900084
:10BCB900F012D7AC9000A612D76D9002F912D7AC4A
:10BCC90090031512D7AC90005412D7AC90035412BC
:08BCD900D788A3EFF0E4F5C7E2
:01BCE1002240
:10C00100E490037CF0A3F075C783FF12DFAE7BAC35
:10C01100E4FDFC12D9F39002E57D0212D9EF900004
:10C021003A12D9EEA23DE433FB0DE4FF12D9F390AD
:10C03100006B12D9EE90006D12D9E590007012D903
:10C04100EE90032112D9CA90034F12D9CA90005918
:10C0510012D9EE90005C12D9EEA240E433FB0DE45C
:10C06100FF12D9F3A24BE433FB0DE4FF12D9F39095
:10C07100027712D9EE90029A12D9E590027912D97B
:10C08100EE90005F12D9EEA22CE433FB7D1DE4FF9C
:10C0910012D9F3A21CE433FB0DE4FF12D9F3900093
:10C0A1001212D9EE90005B12D9EE9002BF12D9EEB6
:10C0B100A23CE433FB0DE4FF12D9F3A226E433FBE7
:10C0C1000DE4FF12D9F390032612D9EE900284E019
:10C0D100FB7D26E4FF12D9F3A312D9C112D9ED9049
:10C0E100005812D9EEA218E433FB0DE4FF12D9F384
:10C0F1009002CF12D9EEA233E433FB0DE4FF12D943
:10C10100F3A24AE433FB0DE4FF12D9F39000F312DA
:10C11100D9EE9002BE12D9EE9002B712D9EE90007C
:10C121005312D9EE9000F0E0FB7D38E4FF12D9F311
:10C131009000A612D9C112D9E49002F912D9EE9059
:10C14100031512D9EE90005412D9EE90035412D96E
:10C15100C1E4FEEEFD7C00E4FF12D7B1EFFD9003D8
:10C161007DE02DF090037CE03CF00EEEB44AE490CB
:0EC17100037CE0FB7D4A7C0012D9E8E4F5C7B0
:01C17F00229D
:10C866007F089002C2E4F0A3DFFC7F0890004374C7
:10C8760064F0A3DFFC7F0890004B7464F0A3DFFC38
:10C886007F089002AEE4F0A3DFFCC243C244C24577
:10C89600C2469002D07401F0E49000F2F09002DB00
:10C8A6007402F09000F504F09002E0F0E490025576
:10C8B600F09002E67405F0E4900257F0FF74F02F52
:10C8C600F582E43402F583EFF00FEFB406EF900241
:10C8D600F67407F0A304F0E4FF74592FF582E434EC
:10C8E60002F583EFF00FEFB408EF7F089002D1E472
:10C8F600F0A3DFFC7F0890028CE4F0A3DFFC90023B
:10C906008E749CF0E4900013F0A3F0A3F0FFEF7593
:10C91600F007A42416F582E43400F583E4F0EF75FD
:10C92600F007A42417F582E43400F5837410F0EFC1
:10C9360075F007A42418F582E43400F5837420F01A
:10C94600EF75F007A42419F582E43400F5837432F8
:10C95600F0EF75F007A4241AF582E43400F5837429
:10C9660044F0EF75F007A4241BF582E43400F58348
:10C976007454F0EF75F007A4241CF582E43400F536
:09C98600837464F00FEFB4058521
:01C98F002285
:0ADCE30075C7839002C1E0FF7E00C8
:10DCED00D3EF9402EE9400401074FD2FFF74FF3EAD
:10DCFD00FE9002617404F080069002617402F0EFF0
:10DD0D004E7004FEFF800FEF64014E7005FE7F75AF
:07DD1D0080047E007FEA2272
:109F030012DCE3AB07AA06E490037CF0A3F0900312
:109F13007CE0FCA3E0FDC3945FEC9401502A900223
:109F230061E0FF12D7B190037CE0FCA3E024F6F5D7
:109F33008274003CF583EFF090037DE004F070CE73
:109F430090037CE004F080C6E490037EF0A3F090DD
:109F5300037CEAF0A3EBF0EB2473FFE43AFE9003F7
:109F63007CE0FCA3E0FDC39FEC9E502974F62DF525
:109F73008274003CF583E0FF90037FE02FF09003B1
:109F83007EE03400F090037DE004F070CA90037C1F
:109F9300E004F080C274692BF58274013AF583E022
:109FA3007F00FE746A2BF58274013AF583E02FFF7C
:109FB300E43EFE74F62BF58274003AF583E0B4AC0C
:109FC3000C90037EE06E7003A3E06F600612C86618
:109FD30002A68474F72BF58274003AF583E09002AD
:109FE300C2F074F82BF58274003AF583E09002C353
:109FF300F074F92BF58274003AF583E09002C4F013
:10A0030074FA2BF58274003AF583E09002C5F0747C
:10A01300FB2BF58274003AF583E09002C6F074FCE2
:10A023002BF58274003AF583E09002C7F074FD2BA0
:10A03300F58274003AF583E09002C8F074FE2BF5C4
:10A043008274003AF583E09002C9F074FF2BF58225
:10A0530074003AF583E0900043F074002BF58274AA
:10A06300013AF583E0900044F074012BF58274010A
:10A073003AF583E0900045F074022BF58274013ABF
:10A08300F583E0900046F074032BF58274013AF5F2
:10A0930083E0900047F074042BF58274013AF58352
:10A0A300E0900048F074052BF58274013AF583E0E3
:10A0B300900049F074062BF58274013AF583E09021
:10A0C300004AF074072BF58274013AF583E090009F
:10A0D3004BF074082BF58274013AF583E090004C41
:10A0E300F074092BF58274013AF583E090004DF08A
:10A0F300740A2BF58274013AF583E090004EF074F4
:10A103000B2BF58274013AF583E090004FF0740C49
:10A113002BF58274013AF583E0900050F0740D2B17
:10A12300F58274013AF583E0900051F0740E2BF53B
:10A133008274013AF583E0900052F0740F2BF5829C
:10A1430074013AF583E09002AEF074102BF582743B
:10A15300013AF583E09002AFF074112BF58274019C
:10A163003AF583E09002B0F074122BF58274013A51
:10A17300F583E09002B1F074132BF58274013AF584
:10A1830083E09002B2F074142BF58274013AF583E4
:10A19300E09002B3F074152BF58274013AF583E075
:10A1A3009002B4F074162BF58274013AF583E090B3
:10A1B30002B5F074172BF58274013AF583E024FF9E
:10A1C300924374182BF58274013AF583E024FF92CD
:10A1D3004474192BF58274013AF583E024FF924508
:10A1E300741A2BF58274013AF583E024FF924674C6
:10A1F3001B2BF58274013AF583E09002D0F0741CB6
:10A203002BF58274013AF583E09000F2F0741D2B74
:10A21300F58274013AF583E09002DBF0741E2BF5AE
:10A223008274013AF583E09000F5F0741F2BF582F8
:10A2330074013AF583E09002E0F074202BF5827408
:10A24300013AF583E0900255F074212BF5827401F5
:10A253003AF583E09002E6F074222BF58274013A1A
:10A26300F583E0900257F074232BF58274013AF5DD
:10A2730083E09002F0F074242BF58274013AF583A5
:10A28300E09002F1F074252BF58274013AF583E036
:10A293009002F2F074262BF58274013AF583E09074
:10A2A30002F3F074272BF58274013AF583E09002F0
:10A2B300F4F074282BF58274013AF583E09002F5EB
:10A2C300F074292BF58274013AF583E09002F6F0DD
:10A2D300742A2BF58274013AF583E09002F7F07447
:10A2E3002B2BF58274013AF583E0900259F0742C1C
:10A2F3002BF58274013AF583E090025AF0742D2B0A
:10A30300F58274013AF583E090025BF0742E2BF52D
:10A313008274013AF583E090025CF0742F2BF5828E
:10A3230074013AF583E090025DF074302BF582748A
:10A33300013AF583E090025EF074312BF5827401EB
:10A343003AF583E090025FF074322BF58274013AA0
:10A35300F583E0900260F074332BF58274013AF5D3
:10A3630083E09002D1F074342BF58274013AF583C3
:10A37300E09002D2F074352BF58274013AF583E054
:10A383009002D3F074362BF58274013AF583E09092
:10A3930002D4F074372BF58274013AF583E090020E
:10A3A300D5F074382BF58274013AF583E09002D628
:10A3B300F074392BF58274013AF583E09002D7F0FB
:10A3C300743A2BF58274013AF583E09002D8F07465
:10A3D3003B2BF58274013AF583E090028CF0743CD8
:10A3E3002BF58274013AF583E090028DF0743D2BD6
:10A3F300F58274013AF583E090028EF0743E2BF5FA
:10A403008274013AF583E090028FF0743F2BF5825A
:10A4130074013AF583E0900290F074402BF5827456
:10A42300013AF583E0900291F074412BF5827401B7
:10A433003AF583E0900292F074422BF58274013A6C
:10A44300F583E0900293F074432BF58274013AF59F
:10A4530083E0900013F074442BF58274013AF58382
:10A46300E0900014F074452BF58274013AF583E013
:10A47300900015F074462BF58274013AF583E09051
:10A483000016F074472BF58274013AF583E09000CF
:10A4930017F074482BF58274013AF583E0900018A5
:10A4A300F074492BF58274013AF583E0900019F0BA
:10A4B300744A2BF58274013AF583E090001AF07424
:10A4C3004B2BF58274013AF583E090001BF0744C3A
:10A4D3002BF58274013AF583E090001CF0744D2B48
:10A4E300F58274013AF583E090001DF0744E2BF56C
:10A4F3008274013AF583E090001EF0744F2BF582CD
:10A5030074013AF583E090001FF074502BF58274C8
:10A51300013AF583E0900020F074512BF582740129
:10A523003AF583E0900021F074522BF58274013ADE
:10A53300F583E0900022F074532BF58274013AF511
:10A5430083E0900023F074542BF58274013AF58371
:10A55300E0900024F074552BF58274013AF583E002
:10A56300900025F074562BF58274013AF583E09040
:10A573000026F074572BF58274013AF583E09000BE
:10A5830027F074582BF58274013AF583E090002884
:10A59300F074592BF58274013AF583E0900029F0A9
:10A5A300745A2BF58274013AF583E090002AF07413
:10A5B3005B2BF58274013AF583E090002BF0745C19
:10A5C3002BF58274013AF583E090002CF0745D2B37
:10A5D300F58274013AF583E090002DF0745E2BF55B
:10A5E3008274013AF583E090002EF0745F2BF582BC
:10A5F30074013AF583E090002FF074602BF58274B8
:10A60300013AF583E0900030F074612BF582740118
:10A613003AF583E0900031F074622BF58274013ACD
:10A62300F583E0900032F074632BF58274013AF500
:10A6330083E0900033F074642BF58274013AF58360
:10A64300E0900034F074652BF58274013AF583E0F1
:10A65300900035F074662BF58274013AF583E0902F
:10A663000036F074672BF58274013AF583E09000AD
:10A6730037F074682BF58274013AF583E090003863
:04A68300F0E4F5C743
:01A6870022B0
:108F120012DCE3AD07AC06900261E0FF12DFAE7433
:108F2200F62DF58274003CF58374ACF09002C2E039
:108F3200FF74F72DF58274003CF583EFF09002C3C5
:108F4200E0FF74F82DF58274003CF583EFF0900297
:108F5200C4E0FF74F92DF58274003CF583EFF090C4
:108F620002C5E0FF74FA2DF58274003CF583EFF040
:108F72009002C6E0FF74FB2DF58274003CF583EF8E
:108F8200F09002C7E0FF74FC2DF58274003CF5837B
:108F9200EFF09002C8E0FF74FD2DF58274003CF5FD
:108FA20083EFF09002C9E0FF74FE2DF58274003C5D
:108FB200F583EFF0900043E0FF74FF2DF58274001B
:108FC2003CF583EFF0900044E0FF74002DF58274CD
:108FD200013CF583EFF0900045E0FF74012DF5822E
:108FE20074013CF583EFF0900046E0FF74022DF52A
:108FF2008274013CF583EFF0900047E0FF74032D8B
:10900200F58274013CF583EFF0900048E0FF7404B0
:109012002DF58274013CF583EFF0900049E0FF7476
:10902200052DF58274013CF583EFF090004AE0FFD4
:1090320074062DF58274013CF583EFF090004BE04D
:10904200FF74072DF58274013CF583EFF090004C1C
:10905200E0FF74082DF58274013CF583EFF0900077
:109062004DE0FF74092DF58274013CF583EFF09019
:10907200004EE0FF740A2DF58274013CF583EFF097
:1090820090004FE0FF740B2DF58274013CF583EFE5
:10909200F0900050E0FF740C2DF58274013CF583D2
:1090A200EFF0900051E0FF740D2DF58274013CF554
:1090B20083EFF0900052E0FF740E2DF58274013CB4
:1090C200F583EFF09002AEE0FF740F2DF58274018C
:1090D2003CF583EFF09002AFE0FF74102DF582743F
:1090E200013CF583EFF09002B0E0FF74112DF582A0
:1090F20074013CF583EFF09002B1E0FF74122DF59C
:109102008274013CF583EFF09002B2E0FF74132DFC
:10911200F58274013CF583EFF09002B3E0FF741422
:109122002DF58274013CF583EFF09002B4E0FF74F8
:10913200152DF58274013CF583EFF09002B5E0FF46
:1091420074162DF58274013CF583EFF0A243E433EB
:10915200FF74172DF58274013CF583EFF0A244E40D
:1091620033FF74182DF58274013CF583EFF0A245AC
:10917200E433FF74192DF58274013CF583EFF0A2FC
:1091820046E433FF741A2DF58274013CF583EFF047
:109192009002D0E0FF741B2DF58274013CF583EF41
:1091A200F09000F2E0FF741C2DF58274013CF5830F
:1091B200EFF09002DBE0FF741D2DF58274013CF5A7
:1091C20083EFF09000F5E0FF741E2DF58274013CF0
:1091D200F583EFF09002E0E0FF741F2DF582740139
:1091E2003CF583EFF0900255E0FF74202DF5827478
:1091F200013CF583EFF09002E6E0FF74212DF58249
:1092020074013CF583EFF0900257E0FF74222DF5D4
:109212008274013CF583EFF09002F0E0FF74232D9D
:10922200F58274013CF583EFF09002F1E0FF7424C3
:109232002DF58274013CF583EFF09002F2E0FF74A9
:10924200252DF58274013CF583EFF09002F3E0FFE7
:1092520074262DF58274013CF583EFF09002F4E060
:10926200FF74272DF58274013CF583EFF09002F52F
:10927200E0FF74282DF58274013CF583EFF0900233
:10928200F6E0FF74292DF58274013CF583EFF0902E
:1092920002F7E0FF742A2DF58274013CF583EFF0AA
:1092A200900259E0FF742B2DF58274013CF583EF97
:1092B200F090025AE0FF742C2DF58274013CF58384
:1092C200EFF090025BE0FF742D2DF58274013CF506
:1092D20083EFF090025CE0FF742E2DF58274013C66
:1092E200F583EFF090025DE0FF742F2DF58274019B
:1092F2003CF583EFF090025EE0FF74302DF582744E
:10930200013CF583EFF090025FE0FF74312DF582AE
:1093120074013CF583EFF0900260E0FF74322DF5AA
:109322008274013CF583EFF09002D1E0FF74332D9B
:10933200F58274013CF583EFF09002D2E0FF7434C1
:109342002DF58274013CF583EFF09002D3E0FF74B7
:10935200352DF58274013CF583EFF09002D4E0FFE5
:1093620074362DF58274013CF583EFF09002D5E05E
:10937200FF74372DF58274013CF583EFF09002D62D
:10938200E0FF74382DF58274013CF583EFF0900212
:10939200D7E0FF74392DF58274013CF583EFF0902C
:1093A20002D8E0FF743A2DF58274013CF583EFF0A8
:1093B20090028CE0FF743B2DF58274013CF583EF43
:1093C200F090028DE0FF743C2DF58274013CF58330
:1093D200EFF090028EE0FF743D2DF58274013CF5B2
:1093E20083EFF090028FE0FF743E2DF58274013C12
:1093F200F583EFF0900290E0FF743F2DF582740147
:109402003CF583EFF0900291E0FF74402DF58274F9
:10941200013CF583EFF0900292E0FF74412DF5825A
:1094220074013CF583EFF0900293E0FF74422DF556
:109432008274013CF583EFF0900013E0FF74432D3A
:10944200F58274013CF583EFF0900014E0FF744460
:109452002DF58274013CF583EFF0900015E0FF7466
:10946200452DF58274013CF583EFF0900016E0FF84
:1094720074462DF58274013CF583EFF0900017E0FD
:10948200FF74472DF58274013CF583EFF0900018CC
:10949200E0FF74482DF58274013CF583EFF09000F3
:1094A20019E0FF74492DF58274013CF583EFF090C9
:1094B200001AE0FF744A2DF58274013CF583EFF047
:1094C20090001BE0FF744B2DF58274013CF583EF95
:1094D200F090001CE0FF744C2DF58274013CF58382
:1094E200EFF090001DE0FF744D2DF58274013CF504
:1094F20083EFF090001EE0FF744E2DF58274013C64
:10950200F583EFF090001FE0FF744F2DF582740198
:109512003CF583EFF0900020E0FF74502DF582744B
:10952200013CF583EFF0900021E0FF74512DF582AC
:1095320074013CF583EFF0900022E0FF74522DF5A8
:109542008274013CF583EFF0900023E0FF74532D09
:10955200F58274013CF583EFF0900024E0FF74542F
:109562002DF58274013CF583EFF0900025E0FF7445
:10957200552DF58274013CF583EFF0900026E0FF53
:1095820074562DF58274013CF583EFF0900027E0CC
:10959200FF74572DF58274013CF583EFF09000289B
:1095A200E0FF74582DF58274013CF583EFF09000D2
:1095B20029E0FF74592DF58274013CF583EFF09098
:1095C200002AE0FF745A2DF58274013CF583EFF016
:1095D20090002BE0FF745B2DF58274013CF583EF64
:1095E200F090002CE0FF745C2DF58274013CF58351
:1095F200EFF090002DE0FF745D2DF58274013CF5D3
:1096020083EFF090002EE0FF745E2DF58274013C32
:10961200F583EFF090002FE0FF745F2DF582740167
:109622003CF583EFF0900030E0FF74602DF582741A
:10963200013CF583EFF0900031E0FF74612DF5827B
:1096420074013CF583EFF0900032E0FF74622DF577
:109652008274013CF583EFF0900033E0FF74632DD8
:10966200F58274013CF583EFF0900034E0FF7464FE
:109672002DF58274013CF583EFF0900035E0FF7424
:10968200652DF58274013CF583EFF0900036E0FF22
:1096920074662DF58274013CF583EFF0900037E09B
:1096A200FF74672DF58274013CF583EFF09000386A
:1096B200E0FF74682DF58274013CF583EFF0E490CD
:1096C200037EF0A3F090037CECF0A3EDF0ED2473A5
:1096D200FFE43CFE90037CE0FAA3E0FBC39FEA9E1A
:1096E200502974F62BF58274003AF583E0FF90035B
:1096F2007FE02FF090037EE03400F090037DE004E1
:10970200F0700690037CE004F080C290037EE0FFDC
:1097120074692DF58274013CF583EFF090037EA30A
:10972200E0FF746A2DF58274013CF583EFF0E4905A
:10973200037CF0A3F0900261E0FF90037CE0FCA3C5
:10974200E0FD24F6F58274003CF583E0FB12D9F3C8
:1097520090037DE004F0700690037CE004F0C39077
:10976200037DE0945F90037CE0940140C8E4F5C778
:0197720022D4
:10DC120012DC41129BE3FF12DC41900001129BFCDB
:10DC2200FF12DC41900002129BFCFF12DC419000CB
:0FDC320003129BFCFF12DC41900004129BFCFFCD
:10DC4100E4FEEF339284D281EF25E0FFA282E43338
:09DC51004FFFC2810EEEB408E998
:01DC5A0022A7
:06DFF100C2807D407F07A5
:10DFF700C285EF2420FF12DC41AF0512DC41D28538
:01E0070022F6
:0CE01B00C28512DC41E4FF12DC41D2851A
:01E0270022D6
:0BDEF20090037DEBF0A3EAF0A3E9F041
:10DEFD00C2857FA012DC41E4FCECC39D501690035B
:10DF0D007DE0FBA3E0FAA3E0F98C8275830012DCBF
:06DF1D003D0C80E5D285F9
:01DF230022DB
:0BDF2400900376EBF0A3EAF0A3E9F015
:10DF2F00C2857FA012DC41E4FCECC39D5016900328
:10DF3F0076E0FBA3E0FAA3E0F98C8275830012DC94
:06DF4F003D0C80E5D285C7
:01DF550022A9
:0BDE150090037DEBF0A3EAF0A3E9F01E
:10DE2000C2857F6112DC41E4FCECC39D501CE4FF21
:10DE300012DC4190037DE0FBA3E0FAA3E0F98C82C1
:0CDE4000758300EF129C290C80DFD28556
:01DE4C0022B3
:0BDE4D00900376EBF0A3EAF0A3E9F0ED
:10DE5800C2857F6112DC41E4FCECC39D501CE4FFE9
:10DE680012DC41900376E0FBA3E0FAA3E0F98C8290
:0CDE7800758300EF129C290C80DFD2851E
:01DE8400227B
:10001E00900277E0FF12DF567F0B12E0407B017AF1
:03002E0003792132
:0A003100C2857F3012DC12D2852256
:0AE05800C2857F2A12DC12D2852255
:0CE02800C2807D3BE4FF12DFF7D28022B3
:0CE03400C2807D0AE4FF12DFF7D28022D8
:10DF5600C280EFB403047D278015EFB402047D254B
:10DF6600800DEFB401047D238005EF70077D217FCE
:07DF76000612DFF7D2802242
:0CE04000C280AD077F1112DFF7D28022F2
:0CE04C00C280AD077F0512DFF7D28022F2
:10DF7D00C280C281E4FD7F0112DFF70D7F0212DF47
:10DF8D00F71D7F0412DFF712E0347F4212E04C12CE
:05DF9D00001E02E05827
:10D28C00E490037CF020820790034EE04402F020EF
:10D29C00840790034EE04410F020830790034EE087
:10D2AC004408F020850790034EE04401F0C280C290
:10D2BC0081C2857F2012DC41EF640E600690037CF6
:10D2CC007401F07F0A12DC41D285C285E4FF12DCC6
:10D2DC0041E4FF12DC41EF640A600790034EE04426
:10D2EC0002F0D285E4FD7F0112DFF77F0412DFF735
:10D2FC000D7F1112DFF77B017A03794312DEF2D234
:10D30C00807F027E0012DFDDC285E4FF12DC41EF7C
:10D31C00642E600790034EE04404F0D285308307FE
:10D32C0090034EE04418F0D28090037CE0600E90A5
:10D33C00034EE0FFD394014004EF4401F07D207FC5
:04D34C000702DFF7FE
:10D0F500C21890032774A0F090034FE0900328F026
:10D10500900350E0900329F0900351E090032AF03A
:10D11500900352E090032BF0900353E090032CF022
:10D12500900321E090032DF0900322E090032EF070
:10D13500900323E090032FF0900324E0900330F058
:10D14500900325E0900331F07F2112E04CE4FF12BB
:10D15500DF567F0B12E0407BFF7A84793112003174
:10D1650012E058C24CD224A224B04C504A12E034EA
:10D175007B017A0379277D0B12DEF212E06212E061
:10D185002812E0622083207B017A0379167D0B1239
:10D19500DE1512DFF1D280900316E0B44F09A3E04B
:10D1A500B44B04C24CC22490037CE004F0E0D39459
:0FD1B5003240CEE4F080B0D21812001E02E058D3
:10D9660012D97C7818900384E0FCA3E0FDA3E0FEC6
:06D97600A3E0FF129DA5D5
:10D97C008F20C2C4A20792C5D2C4C2C4A20692C54B
:10D98C00D2C4C2C4A20592C5D2C4C2C4A20492C558
:10D99C00D2C4C2C4A20392C5D2C4C2C4A20292C54C
:10D9AC00D2C4C2C4A20192C5D2C4C2C4A20092C540
:05D9BC00D2C4C2C42228
:0ADD6400E0FF12D97CEC244BFF0D08
:10DD6E00AE07C2C630260E304B050E0E0E800A745C
:10DD7E00042EFE8004304B010EED24B0FF12D97C30
:10DD8E00EEC4540F2410FF12D97CEE540FFF12D99B
:04DD9E007CD2C6224B
:03000300C2862290
:03000600D286227D
:0BDEBC009003817408F07B80E4FDFF00
:04DEC700A907AC05F6
:10DECB00E4FA900381E0FFEAC39F501AAF01EA2CFA
:10DEDB00FD12DD6EE4FEEEC39B5008E4FF12D97C0D
:06DEEB000E80F30A80DC4A
:01DEF100220E
:10D68E00120003C2877F027E0012DFDDD2877F0A7F
:10D69E007E0012DFDDC2C67FE212D97C12E0627F0D
:10D6AE002C12D97C7F2E12D97C0F12D97C7F23129B
:10D6BE00D97C7F8112D97C90003AE0FF12D97C7F11
:10D6CE00A012D97C7FA212D97C7FA412D97C7FA60E
:10D6DE0012D97C7FC812D97C304B047F6080027FC8
:10D6EE004012D97C7FAF12D97CD2C612DEBC0200AA
:01D6FE000625
:10DDA20012DDB37D01E4FF12DD6E7F4312DDB37F2E
:01DDB2004828
:02DDB300AE07B9
:10DDB500E4FD75F006EEA42467F582E5F03453F52D
:10DDC50083E5822DF582E43583F583E493FF12D94B
:06DDD5007C0DEDB406DC3C
:01DDDB002225
:10D48D0090037CE0FDA3E0FB7F5012D4B590037CAC
:10D49D00E02408FDA3E0FB7F5012D4B590037CE09F
:08D4AD002410FDA3E0FB7F4DFC
:04D4B500AC07AA0511
:10D4B90074E02CFCAF02AD0312DD6EE4FE75F010D2
:10D4C900ECA42491F582E5F03456F583E5822EF536
:10D4D90082E43583F583E493FF12D97C0EEEB40818
:10D4E900DCAF02EB04FD12DD6E7E0875F010ECA4D2
:10D4F9002491F582E5F03456F583E5822EF582E430
:0FD509003583F583E493FF12D97C0EEEB410DC6A
:01D5180022F0
:10D01500900323E0C4540FFF7D3C12D02B900323D3
:06D02500E0540FFF7D4402
:04D02B00AA07A905A2
:10D02F00EAD39409406074172AFAAF01AD0312DDF9
:10D03F006EE4FC75F010EAA42491F582E5F0345605
:10D04F00F583E5822CF582E43583F583E493FF12B3
:10D05F00D97C0CECB408DCAF01EB04FD12DD6E7C67
:10D06F000875F010EAA42491F582E5F03456F583A3
:10D07F00E5822CF582E43583F583E493FF12D97CA6
:10D08F000CECB410DC2274102AFAAF01AD0312DDE0
:10D09F006EE4FC75F010EAA42491F582E5F03456A5
:10D0AF00F583E5822CF582E43583F583E493FF1253
:10D0BF00D97C0CECB408DCAF01EB04FD12DD6E7C07
:10D0CF000875F010EAA42491F582E5F03456F58343
:10D0DF00E5822CF582E43583F583E493FF12D97C46
:05D0EF000CECB410DCA4
:01D0F4002219
:10DB1F0090037C7BFF7A627901E0FDA3E09003879D
:01DB2F00F005
:02DB3000AC0542
:10DB3200AF04900387E0FD12DD6EE4FE129BE3FF6B
:10DB420012D97C740129F9E43AFA0EEEB40CEDAF65
:10DB520004900387E004FD12DD6EE4FE129BE3FFF6
:0FDB620012D97C740129F9E43AFA0EEEB40CEDF5
:01DB71002291
:10D83F0090027A746AF0A304F0A37420F0A37488A2
:08D84F00F0E4A3F07D027F2844
:08D8570090037CEFF0A3EDF05B
:10D85F00A37401F0A37402F0A3747AF090037EE036
:10D86F00FBA3E0FAA3E0F9129BE3FF602775F01822
:10D87F00A42491F9745C35F0FA7BFF90037C12DBE2
:10D88F002890037FE475F001129CE890037CE0245C
:04D89F000CF080C841
:01D8A3002262
:0DDACB0035F0FA7B017402900382F07D0CAF
:10DAD80090037EEBF0A3EAF0A3E9F0A3EDF0900346
:10DAE8007EE0FBA3E0FAA3E0F9129BE3FF60277551
:10DAF800F018A42491F9745C35F0FA7BFF90038147
:10DB080012DB2890037FE475F001129CE8900381F2
:07DB1800E0240CF080C8229C
:10DBC3007BFFE4900380F0A37480F0A37408F0E477
:01DBD300FD54
:05DBD40090037FEDF05D
:10DBD900E4FC900382E0FFECC39F502C90037FE0AC
:10DBE900FFA3E02CFD12DD6EE4FE900381E0FFEE61
:10DBF900C39F5011129BE3FF12D97C740129F9E4E8
:08DC09003AFA0E80E50C80CA16
:01DC110022F0
:04A68800AB05A9076E
:10A68C00900380129E0400000000900388129E0428
:10A69C000000000090037C129E0403E00000E975AA
:10A6AC00F00584F9E4FAEAC399400302A740900349
:10A6BC007CA3A3A3E05401FFEF90037C6043E0FC78
:10A6CC00A3E0FDA3E0FEA3E0FF7801129DA590039B
:10A6DC007C129DF8900380E0FCA3E0FDA3E0FEA3B8
:10A6EC00E0FF7801129DA5900380129DF8900380E5
:10A6FC00E0FCA3E0FDA3E0FEA3E0FFEC4480FC80C3
:10A70C0029E0FCA3E0FDA3E0FEA3E0FF7801129D8D
:10A71C00A590037C129DF8900380E0FCA3E0FDA3C0
:10A72C00E0FEA3E0FF7801129DA5900380129DF836
:10A73C000A02A6B2900380E0FCA3E0FDA3E0FEA316
:10A74C00E0FFEC4440FC900380129DF8E9701790F8
:10A75C000384129E0400100000900388129E0400D3
:10A76C0000000002A831E9B43217900384129E0451
:10A77C0000000000900388129E040000010002A853
:10A78C0031900384129E0402080000900388129EEC
:10A79C0004000000007A01EAC399400302A831903A
:10A7AC000384A3A3A3E05401FFEF9003846043E070
:10A7BC00FCA3E0FDA3E0FEA3E0FF7801129DA590B1
:10A7CC000384129DF8900388E0FCA3E0FDA3E0FE57
:10A7DC00A3E0FF7801129DA5900388129DF89003C9
:10A7EC0088E0FCA3E0FDA3E0FEA3E0FFEC4480FCCA
:10A7FC008029E0FCA3E0FDA3E0FEA3E0FF780112BA
:10A80C009DA5900384129DF8900388E0FCA3E0FDC5
:10A81C00A3E0FEA3E0FF7801129DA5900388129D92
:10A82C00F80A02A7A3900388E0FCA3E0FDA3E0FED6
:10A83C00A3E0FFEC4440FC900388129DF8AF037D2D
:10A84C000712DD6E90037CE0FCA3E0FDA3E0FEA309
:10A85C00E0FF7818129DA512D9667F0312D9669075
:10A86C00037CE0FCA3E0FDA3E0FEA3E0FF7818125C
:10A87C009DA512D97CAF037D0612DD6E90037CE0A2
:10A88C00FCA3E0FDA3E0FEA3E0FF7810129DA5124F
:10A89C00D97C781012D96B7FFF12D97C900384E09D
:10A8AC00FCA3E0FDA3E0FEA3E0FF7810129DA5122F
:10A8BC00D97C90037CE0FCA3E0FDA3E0FEA3E0FFC9
:10A8CC007810129DA512D97CAF037D0512DD6E9018
:10A8DC00037CE0FCA3E0FDA3E0FEA3E0FF780812FC
:10A8EC009DA512D97C900384E0FCA3E0FDA3E0FEBF
:10A8FC00A3E0FF7808129DA512D97C7FFF12D97CAA
:10A90C00900384E0FCA3E0FDA3E0FEA3E0FF780845
:10A91C00129DA512D97C90037CE0FCA3E0FDA3E082
:10A92C00FEA3E0FF7808129DA512D97CAF037D042D
:10A93C0012DD6E90037CA3A3A3E0FF12D97C9003DD
:10A94C0084A3A3A3E0FF12D97C7FFF12D97C9003D0
:10A95C0084A3A3A3E0FF12D97C90037CA3A3A3E060
:10A96C00FF12D97CAF031D12DD6EA3E0FCA3E0FD4A
:10A97C00A3E0FEA3E0FF7818129DA512D97C9003EA
:10A98C0088E0FCA3E0FDA3E0FEA3E0FF7818129D95
:10A99C00A512D97C7FFF12D97C900388E0FCA3E040
:10A9AC00FDA3E0FEA3E0FF7818129DA512D97C90C0
:10A9BC000380E0FCA3E0FDA3E0FEA3E0FF78181207
:10A9CC009DA512D97CAF037D0212DD6E900380E051
:10A9DC00FCA3E0FDA3E0FEA3E0FF7810129DA512FE
:10A9EC00D97C900388E0FCA3E0FDA3E0FEA3E0FF8C
:10A9FC007810129DA512D97C7FFF12D97C90038808
:10AA0C00E0FCA3E0FDA3E0FEA3E0FF7810129DA5FF
:10AA1C0012D97C900380E0FCA3E0FDA3E0FEA3E050
:10AA2C00FF7810129DA512D97CAF037D0112DD6E4B
:10AA3C00900380E0FCA3E0FDA3E0FEA3E0FF780818
:10AA4C00129DA512D97C900388E0FCA3E0FDA3E045
:10AA5C00FEA3E0FF7808129DA512D97C7FFF12D9C6
:10AA6C007C900388E0FCA3E0FDA3E0FEA3E0FF786C
:10AA7C0008129DA512D97C900380E0FCA3E0FDA3F5
:10AA8C00E0FEA3E0FF7808129DA512D97CAF03E489
:10AA9C00FD12DD6E900380A3A3A3E0FF12D97C907E
:10AAAC000388A3A3A3E0FF12D97C7FF812D97C9072
:10AABC000388A3A3A3E0FF12D97C900380A3A3A3D4
:05AACC00E0FF02D97C4F
:02DA1B00AE0754
:10DA1D00EE75F005842402FEE4FDEDB41B047F7C5D
:10DA2D00803CC3EE9DFFB403047F388031EFB40218
:10DA3D00047F548029EFB401047F548021EF7004DA
:10DA4D007F54801AEFB4FF047F548012EFB4FE04AC
:10DA5D007F54800AEFB4FD047F3880027F1012D905
:07DA6D007C0DED643770B37E
:01DA7400228F
:02CABA00AB07C8
:10CABC0090037C129E0400000000EB131313541F10
:10CACC00FBE4FAEAC39B503490037CE0FCA3E0FD4A
:10CADC00A3E0FEA3E0FF7801129DB890037C129DA9
:10CAEC00F890037CE0FCA3E0FDA3E0FEA3E0FFECE8
:10CAFC004480FC90037C129DF80A80C790037CE074
:10CB0C00FCA3E0FDA3E0FEA3E0FFE4FAF9F8EF24B8
:10CB1C0001FFEA3EFEE93DFDE83CFC90037C129DE2
:10CB2C00F87D067F0912DD6E90037CE0FCA3E0FD2E
:10CB3C00A3E0FEA3E0FF7818129DB812D97C9003F5
:10CB4C007CE0FCA3E0FDA3E0FEA3E0FF7818129DBF
:10CB5C00B812D97C7D057F0912DD6E90037CE0FC58
:10CB6C00A3E0FDA3E0FEA3E0FF7810129DB812D95C
:10CB7C007C90037CE0FCA3E0FDA3E0FEA3E0FF7847
:10CB8C0010129DB812D97C7D047F0912DD6E9003C2
:10CB9C007CE0FCA3E0FDA3E0FEA3E0FF7808129D7F
:10CBAC00B812D97C90037CE0FCA3E0FDA3E0FEA3CB
:10CBBC00E0FF7808129DB812D97C7D037F0912DD45
:10CBCC006E90037CA3A3A3E0FF12D97C90037CA3FB
:07CBDC00A3A3E0FF02D97CD6
:06D5A500E4FB7D037F346E
:10D5AB0012DD6EEB60407F4012D97C7F6012D97C1C
:10D5BB007F5012D97C7F4812D97C7F4412D97C7F53
:10D5CB004212D97C7F6D12D97C7F4212D97C7F4469
:10D5DB0012D97C7F4812D97C7F5012D97C7F601284
:10D5EB00D97C7F408026E4FF12D97C12D97C12D9DA
:10D5FB007C12D97C12D97C12D97C12D97C12D97CA1
:10D60B0012D97C12D97C12D97C12D97C12D97C22EA
:10C45A003EF583E0FF7E007425900380F0E4FB7DC7
:01C46A00468B
:10C46B0090037CEEF0A3EFF0A3EDF0A3EBF0A3E0D1
:10C47B00FF642D600AEF642F6005EF64237057D3C0
:10C48B0090037DE0940090037CE064809480400EE8
:10C49B0090037EE024F8FDA3E0FB7F2B8035900317
:10C4AB007CE0FEA3E0FFC3EE648094805019C3E4EC
:10C4BB009FFFE49E90037CF0A3EFF0A3E024F8FD34
:10C4CB00A3E0FB7F2D800C90037EE024F8FDA3E01E
:10C4DB00FB7F2012D4B590037CE0FEA3E0FFD39446
:10C4EB0063EE6480948040137C007D64129CB2EFF9
:10C4FB002430FFA3E0FDA3E0FB800A90037EE0FD68
:10C50B00A3E0FB7F2012D4B590037CE0FEA3E0FFF9
:10C51B007C007D64129CB27E007F0ACFCDCFCECC47
:10C52B00CE129CB2EF2430FFA3E02408FDA3E0FB66
:10C53B0012D4B5900380E0FF642E6005EF64237086
:10C54B003D90037EE02410FDA3E0FB7F2E12D4B5BB
:10C55B0090037CE0FEA3E0FF7C007D0A129CB2ED11
:10C56B002430FFA3E02418FDA3E0FB12D4B5900305
:10C57B0080E06423704290037EE02420803190039E
:10C58B007CE0FEA3E0FF7C007D0A129CB2ED243020
:10C59B00FFA3E02410FDA3E0FB12D4B5900380E0D1
:10C5AB00FF64256004EFB42F0F90037EE02418FD89
:09C5BB00A3E0FB7F2512D4B52298
:07CD0C00E0FEA3E0FFE4FDDF
:10CD130090037CEDF0AB07AA06D3EB94E7EA6480BB
:10CD230094834073E070077F3112DDB3800F7C0082
:10CD33007D0AAF03AE02129CB2AA06AB077C037D49
:10CD4300E8AF03AE02129CB27E007F64CFCDCFCE9C
:10CD5300CCCE129CB2EF2430FF12DDB37C007D6495
:10CD6300AF03AE02129CB27E007F0ACFCDCFCECCF2
:10CD7300CE129CB2EF2430FF12DDB390037CE0B4FB
:10CD83002E0AE4FF12D97C7F4012D97C7C007D0AF5
:10CD9300AF03AE0202CE2690037CE0FC7002802734
:10CDA300EC642D7027D3EB9400EA648094804004F4
:10CDB3007F2B8015C3EA64809480500BC3E49BFBF4
:10CDC300E49AFA7F2D80027F2012DDB37C037DE895
:10CDD300AF03AE02129CB27E007F64CFCDCFCECC28
:10CDE300CE129CB2EF2430FF12DDB390037CE0B48B
:10CDF3002E0AE4FF12D97C7F4012D97C7C007D642B
:10CE0300AF03AE02129CB27E007F0ACFCDCFCECC51
:10CE1300CE129CB2EF2430FF12DDB3AE02AF037C1F
:0ECE2300007D0A129CB2ED2430FF12DDB32216
:07D90700900266E0FF7D03C2
:10D90E0090037DEDF090037CEFF0900296E06F6057
:10D91E000312DEBC90037CE0900296F0304917C2F1
:10D92E0049D39400400890037CE014F080089003E3
:10D93E007DE090037CF0302819C22890037DE0FF33
:10D94E0090037CE0C39F5005E004F08005E4900353
:08D95E007CF090037CE0FF2245
:10B0FA00900266EFF09000AE745EF0A304F0A374C1
:10B10A0051F0E4A3F09000B4745EF0A304F0A374C9
:10B11A0052F0E4A3F09000BA745EF0A304F0A374B2
:10B12A0053F0E4A3F09000C0745EF0A304F0A3749B
:10B13A0054F0E4A3F09000C6745EF0A304F0A37484
:10B14A0055F0E4A3F09000CC745EF0A304F0A3746D
:10B15A0056F0E4A3F09000D2745EF0A304F0A37456
:10B16A0057F0E4A3F0745E9000D8F0A304F0A3743F
:07B17A0058F0E4A3F07D078B
:10B1810090037CEFF0A3EDF0C39404500D7BFF7AA4
:10B191005C79A990037CE0FF801190037CE0FFC300
:10B1A1009403500D7BFF7A5C79A9EF2F9003878080
:10B1B1001B90037DE0FF90037CE07BFF7A5C79A923
:10B1C100900387B50704740680027404F0E4FD124D
:10B1D100DB3090037CE0C39403504CA3E064027B1A
:10B1E100017A0079AE701A12DAD27B017A0079B451
:10B1F10012DAD07B017A0079BA900382740402B228
:10B20100F3E412DAD27B017A0079B412DAD07B014D
:10B211007A0079BA740412DAD27B017A0079C0908B
:10B221000382740602B2F390037DE0FF90037CE099
:10B23100FE6F7059EE75F006A4249CF9740035F088
:10B24100FA7B01E412DAD290037CE075F006A424C3
:10B25100A2F9740012DACB90037CE075F006A42405
:10B26100A8F9740035F0FA7B019003827404F07D33
