:1015DC0004010302020100000202020304010201E1
:1015EC0004030304020002020301020302020204C8
:1015FC0002040003040203010003010303000200C0
:10160C0004030303030304010104030001000302A8
:10161C00030203030404010300000301030303009A
:10162C000303040102040103000103040403020385
:09163C00010203034C4F56452145
:1016450005700A233C556E014F0342006D000042B0
:10165500006F00004200710000420073000042006C
:10166500750000410010004100770041002A00503C
:10167500005D01FF01FF005001FF01FF01FF01FFB8
:1016850001FF102800000400000004000000040011
:041695000000000051
:080032007F0C7EA8DEFEDFFC5E
:01003A0022A3
:0E192600AD07AF051DEF600512003280F522FF
:10000E0075C501D3ED94FFEC9400400AEF04F5C3DF
:10001E00ED04F5C480048FC38DC475C65A75C6A58C
:04002E0000AFC2223B
:10003E0075C5028BC2D3ED94FFEC9400400AEF0419
:10004E00F5C3ED04F5C480048FC38DC475C65A750F
:04005E00C6A5002211
:1019060075C5038FC3E4F5C475C65A75C6A500220E
:10181900AE0775C783AF061219067B88E4FDFC1273
:10182900003E12000EEF64887015AF061219067B90
:101839005512003E12000EEF645570037F01227F9E
:0218490000227B
:10090100E4F50AF50B75C783FEEEC3942874809451
:1009110080502CEEFD7C00E4FF12000E742B2EF5AE
:1009210082E43400F583EFF0742B2EF582E4340079
:10093100F583E0250BF50BEC350AF50A0E80CA7D2F
:10094100287C00E4FF12000EAB07EB7B00FA0DE4FC
:10095100FF12000EEB2FFBE43AFA90002BE064ABA0
:10096100700AE50B6B7003E50A6A6005D204020B9D
:100971003E90002CE0F570A3E0F571A3E0F572A3C1
:10098100E0F573A3E0F574A3E0900078F0900032F5
:10099100E0900079F0900033E090007AF09000341C
:1009A100E090007BF0900035E090007CF090003604
:1009B100E0FF90005DE4F0A3EFF0E0F8E4F0E890F0
:1009C100005DF0900037E0FF90005EE02FF09000B6
:1009D1005DE03400F0900038E0FF90005FE4F0A3A8
:1009E100EFF0E0F8E4F0E890005FF0900039E0FF0C
:1009F100900060E02FF090005FE03400F090003A4A
:100A0100E0FF900061E4F0A3EFF0E0F8E4F0E8909B
:100A11000061F090003BE0FF900062E02FF0900059
:100A210061E03400F090003CE0FF900063E4F0A34B
:100A3100EFF0E0F8E4F0E8900063F090003DE0FFB3
:100A4100900064E02FF0900063E03400F090003EED
:100A5100E0FF900065E4F0A3EFF0E0F8E4F0E89047
:100A61000065F090003FE0FF900066E02FF09000FD
:100A710065E03400F0900040E0FF900067E4F0A3EF
:100A8100EFF0E0F8E4F0E8900067F0900041E0FF5B
:100A9100900068E02FF0900067E03400F090004291
:100AA100E0FF900069E4F0A3EFF0E0F8E4F0E890F3
:100AB1000069F0900043E0FF90006AE02FF09000A1
:100AC10069E03400F0900044E0FF90006BE4F0A393
:100AD100EFF0E0F8E4F0E890006BF0900045E0FF03
:100AE10090006CE02FF090006BE03400F090004635
:100AF100E024FF920BA3E024FF9200A3E024FF92E5
:100B010001A3E024FF9203A3E024FF920AA3E024BF
:100B1100FF920CA3E024FF920DA3E024FF920EA309
:100B2100E024FF920FA3E024FF9210A3E024FF92A0
:100B310011A3E024FF9212A3E024FF9207E4F5C77A
:010B41002291
:10119C0090002B74ABF0A3E570F0A3E571F0A3E520
:1011AC0072F0A3E573F0A3E574F0900078E0900082
:1011BC0031F0900079E0900032F090007AE09000ED
:1011CC0033F090007BE0900034F090007CE09000D5
:1011DC0035F090005DE0FCA3E0FDEC900036F0A350
:1011EC00EDF090005FE0FCA3E0FDEC900038F0A384
:1011FC00EDF0900061E0FCA3E0FDEC90003AF0A370
:10120C00EDF0900063E0FCA3E0FDEC90003CF0A35B
:10121C00EDF0900065E0FCA3E0FDEC90003EF0A347
:10122C00EDF0900067E0FCA3E0FDEC900040F0A333
:10123C00EDF0900069E0FCA3E0FDEC900042F0A31F
:10124C00EDF090006BE0FCA3E0FDEC900044F0A30B
:10125C00EDF0A20BE433A3F0A200E433A3F0A2015F
:10126C00E433A3F0A203E433A3F0A20AE433A3F023
:10127C00A20CE433A3F0A20DE433A3F0A20EE433EA
:10128C00A3F0A20FE433A3F0A210E433A3F0A21155
:10129C00E433A3F0A212E433A3F0A207E433A3F0E7
:1012AC00E4FDFCFEEEC39428748094805013742BE0
:1012BC002EF582E43400F583E02DFDE43CFC0E8039
:1012CC00E3900053ECF0A3EDF075C783E4FF121923
:1012DC0006E4FEEEC3942A748094805017EEFD7CD5
:1012EC0000242BF582E43400F583E0FBE4FF1200CC
:0712FC003E0E80DFE4F5C7A0
:0113030022C7
:10169A001216C9120F97FF1216C9900001120FB045
:1016AA00FF1216C9900002120FB0FF1216C990005D
:0F16BA0003120FB0FF1216C9900004120FB0FFF9
:1016C900E4FEEEC39408748094805015EF3392932E
:1016D900D2CCEF25E0FFA295E4334207C2CC0E80BD
:0116E900E11F
:0116EA0022DD
:0618C500C2CD7D407F074B
:1018CB00C292EF2420FF1216C9AF051216C9D2928D
:0118DB0022EA
:08187D007B007A0079647D0B09
:061885008B0B8A0C890D9B
:10188B00C2927FA01216C9E4FCECC39D5011AB0BA6
:10189B00AA0CA90D8C827583001216C50C80EAD296
:0118AB0092AA
:0118AC002219
:0817AE007B007A0079587D0BE5
:0617B6008B0B8A0C890D6B
:1017BC00C2927F611216C9E4FCECC39D5017E4FF82
:1017CC001216C9AB0BAA0CA90D8C82758300EF12F3
:0717DC000FDD0C80E4D29246
:0117E30022E3
:0A195800C2927F3012169AD292223A
:0E18AD007F211218FA7BFF7A16794012195823
:0A18BB00C2927F2A12169AD29222DE
:0C193400C2CD7D3BE4FF1218CBD2CD22C7
:0C194000C2CD7D0AE4FF1218CBD2CD22EC
:10184B00C2CDEFFB7A00640370047D27801CEB6430
:10185B00024A70047D258012EFFB7A00640170044C
:10186B007D238006EB4A70077D217F061218CBD2B1
:02187B00CD227C
:0C194C00AD07C2CD7F111218CBD2CD2206
:0718F3007470254DF8E6FFBB
:0C18FA00AD07C2CD7F051218CBD2CD2265
:1017E400C2CDC2CCE4FD7F011218CB0D7F021218CA
:1017F400CB1D7F041218CB1219347F421218FAAF92
:101804004F12184B7F0B12194C7B017A0079781216
:0518140018BB02195889
:1014D000E4F50AC2CDC2CCC2927F201216C9EF64D5
:1014E0000E6003750A017F0A1216C9D292C292E4F5
:1014F000FF1216C9E4FF1216C9EF640A6003436FB6
:1015000002D292E4FD7F011218CB7F041218CB0D9A
:101510007F111218CB7B007A007964121885D2CD26
:101520007F02121926C292E4FF1216C9EF642E60E0
:1015300003436F04D292309403436F18D2CDE50A6F
:10154000600ED3E56F9401748094804003436F0173
:071550007D207F070218CB8C
:10130400E4FF12184B1218AD2094FD1217AE1218F8
:10131400C5D2CDE55864A07025855970855A71856C
:101324005B72855C73855D74900078E55EF0A3E57F
:101334005FF0A3E560F0A3E561F0A3E562F07564F6
:101344004F75654BD2053005441219401218AD1281
:10135400187D120032121934AF701218FA7B017A18
:101364000079781219581218BB12003220940C120A
:1013740017AE1218C5D2CDC20580CB050AD3E50A33
:1013840094647480948040E1E4F50A80B912119C5D
:101394007B017A0079781218BB1219587F0302185E
:0113A4004BFD
:10155700F54A8E49E5611313543F254AF54AE435A8
:1015670049F549E5615403754B00F54C754C00F599
:101577004BE562254CF54CE4354BF54BE4FBFA7D26
:10158700FF7C03AF3EAE3D1215BFAF40AE3F121515
:10159700BFAF42AE411215BFAF44AE431215BFAF46
:1015A70046AE451215BFAF48AE471215BFAF4AAE9C
:0815B700491215BFAF4CAE4B09
:1015BF00D3EF9DEC6480F8EE6480984004AE04AFE6
:0D15CF0005C3EF9BEA6480F8EE648098226B
:100D7900E52925E0900001F0E52833900000F0E531
:100D89002B25E0900003F0E52A33900002F0E52DD1
:100D990025E0900005F0E52C33900004F0E52F25BF
:100DA900E0900007F0E52E33900006F0E53125E0EC
:100DB900900009F0E53033900008F0E53325E09024
:100DC900000BF0E5323390000AF0E53525E090009C
:100DD9000DF0E5343390000CF0E53725E090000F75
:100DE900F0E5363390000EF0900000E0FEA3E090AD
:100DF9000012F0EEA3F0900002E0FCA3E0FDAE04C7
:100E09007803C333CE33CED8F9FF900013E02FF027
:100E1900AE04ED7805CEC313CE13D8F9900014F0C3
:100E2900900004E0FCA3E0FDAE047806C333CE33A2
:100E3900CED8F9FF900014E02FF0AE04ED7802CE81
:100E4900C313CE13D8F9900015F0900004E01313E2
:100E5900543F900016F0900006E0FCA3E0FD25E069
:100E6900FF900016E02FF0AE04ED7807CEC313CE45
:100E790013D8F9900017F0900008E0FCA3E0FDC436
:100E8900F8540FC868FF900017E02FF0ECC4F8542D
:100E9900F0C8EDC4540F48A3F090000AE0FCA3E0A9
:100EA900FDAE047807C333CE33CED8F9FF900018CE
:100EB900E02FF0ECC313ED13A3F090000AE0C31385
:100EC90090001AF090000CE0FCA3E0FDAE0478025B
:100ED900C333CE33CED8F9FF90001AE02FF0AE0419
:100EE900ED7806CEC313CE13D8F990001BF090000D
:100EF9000EE0FCA3E0FDAE047805C333CE33CED8B3
:100F0900F9FF90001BE02FF0AE04ED7803CEC31378
:100F1900CE13D8F9FF90001CF090007D740FF0906B
:100F29000012E090007EF0900013E090007FF090B6
:100F39000014E0900080F0900015E0900081F0909E
:100F49000016E0900082F0900017E0900083F09086
:100F59000018E0900084F0900019E0900085F0906E
:100F6900001AE0900086F090001BE0900087F0A343
:100F7900EFF0E4A3F0A3F0A3F0A3F0A3F0A3F0A390
:0E0F8900F0A3F0A3F0A3F0A3F0A3F0A3F022D6
:100B420090006EE004F0700690006DE004F0D39027
:100B5200006EE0944D90006DE0940140127401F03B
:100B6200A3744DF0E4900010F090002A7402F0900B
:100B72000070E004F0700690006FE004F0D3900083
:100B820070E0944D90006FE094014011E4F0A3F006
:100B9200900077E0900010F0E4900077F0900072FF
:100BA200E004F07006900071E004F0D3900072E06F
:100BB200949A900071E09402404C7402F0A3749AEB
:100BC200F090005DE0F528A3E0F529A3E0F52AA363
:100BD200E0F52BA3E0F52CA3E0F52DA3E0F52EA381
:100BE200E0F52FA3E0F530A3E0F531A3E0F532A361
:100BF200E0F533A3E0F534A3E0F535A3E0F536A341
:100C0200E0F537120D79300926900074E004F07097
:100C120006900073E004F0D3900074E0944D9000CD
:100C220073E094014009E4F0A3F0C20912119C9010
:100C3200002AE0FF7E0064017029C290900076E0F5
:100C420004F07006900075E004F0D3900076E09412
:100C52000A900075E094004016E4F0A3F090002A98
:100C6200F0800CEF64024E7004C2908002D29005B4
:100C720063201313D3E563940774809480402EC2DB
:100C820006D213C2148026201411D3E563940E7485
:100C92008094804018C206D2148012D3E563941661
:100CA200748094804007E4F563C206C2130575E5BB
:100CB200756401705DAFBDF5508F51AE50E551784E
:100CC20002C333CE33CED8F9F5518E50AFBE2FF5D5
:100CD20051E43550F550E47F09FEFDFC780E121008
:100CE200B5121066E47B0AFAF9F812172FA804A9C4
:100CF20005AA06AB07E4FCFDEB2551FFEA3550FEE1
:100D0200ED39FDEC38FC780E1210C2759D0275BCEF
:100D12008922E5756402705EF575AFBDF5528F5399
:100D2200AE52E5537802C333CE33CED8F9F5538EA3
:100D320052AFBE2FF553E43552F552E47F09FEFD62
:100D4200FC78121210B5121066E47B0AFAF9F81256
:100D5200172FA804A905AA06AB07E4FCFDEB25534F
:100D6200FFEA3552FEED39FDEC38FC78121210C262
:070D7200E4F59D75BC882229
:101916007598D0438E01438E0475D7E275D6FF22A3
:1018DC00AC07EC6011C2907F32121926D2907F3285
:0718EC001219261C80EC22FA
:1013A500C2B1D2B012003220B00D75B202D2B11264
:1013B500003230B002D202C2B1C2B075B2CF75915F
:1013C500027F02121819EF70077F6412192680F147
:1013D50012090190005DE0FEA3E0FFE4FBFA7DFF4A
:1013E5007C031215BFA3E0FEA3E0FF1215BFA3E027
:1013F500FEA3E0FF1215BFA3E0FEA3E0FF1215BF99
:10140500A3E0FEA3E0FF1215BFA3E0FEA3E0FF12D9
:1014150015BFA3E0FEA3E0FF1215BFA3E0FEA3E006
:10142500FF1215BF1214D0E56F60057F0A1218DC94
:0F1435001217E4300202D204300403121304220F
:10006600C2B7C2B6C2B3C2B2C2B1C2B0C2B4C2B5DE
:100076007FC8121926C2907FC81219261213A5D25C
:100086009075BC8075A21075F40375F303300003F8
:1000960075DC4230010375DB4275B80275A8823003
:1000A600070D12191675D901E4F5AFD2B1800C759A
:1000B600D74775D6F475AF04E4F5D9E4F589438ED0
:1000C6001075D840AF701218FA2094FDD28CD20663
:1000D600A206829440FA2006030204D8C213C21470
:1000E600E4F527900077E004F0E490006DF0A3F0CB
:1000F600900071F0A3F0F56390002AE06002E4F04E
:100106001217AE1218C5D2CD121940900010E0F5A4
:1001160064780E1210B57F0A7ED37D137C00121709
:100126002F8E258F26E525F565852666E4FCFD7868
:10013600121210B5121066E47B03FAF9F812106673
:10014600E4FB7A28F9F812172F8E238F24E523F57E
:100156006785246812187D12003212193430080A95
:10016600C208E54E9015DC93F54D054DD3E54D944B
:1001760004748094804003E4F54D1218F3AF587E62
:1001860000EF64A2600302025690002A04F0E559CB
:1001960030E704D20B8002C20BE55930E604D207E1
:1001A6008002C20730070B12191675D901E4F5AFA4
:1001B600800F75D74775D6F4538EFB75AF04E4F5FB
:1001C600D9E55930E307D20075DC428005C200E468
:1001D600F5DCE55930E207D20175DB428005C20144
:1001E600E4F5DBE55930E107D20375DA428005C252
:1001F60003E4F5DAE55A30E704D20A8002C20AE5DA
:100206005A30E604D20C8002C20CE55A30E504D21C
:100216000D8002C20DE55A30E404D20E8002C20EF1
:10022600E55A30E304D20F8002C20FE55A30E204E9
:10023600D2108002C210E55A30E104D2118002C207
:1002460011E55A30E005D21202039BC21202039B4B
:10025600EF64A04E60030203A790002A04F0C29048
:10026600753D0085593EAE3DE53E7802C333CE333B
:10027600CED8F9F53E8E3DE55AC413135403253EF8
:10028600F53EE4353DF53DE55A543F753F00F540F2
:10029600C4F8540FC868F540E53FC454F048F53F2C
:1002A600E55BC4540F2540F540E4353FF53FE55B7B
:1002B600540F754100F542AE417806C333CE33CEB6
:1002C600D8F9F5428E41E55C1313543F2542F542B9
:1002D600E43541F541E55C5403754300F544754446
:1002E60000F543E55D2544F544E43543F54375459E
:1002F60000855E46AE45E5467802C333CE33CED89A
:10030600F9F5468E45E55FC4131354032546F546B5
:10031600E43545F545E55F543F754700F548C4F8B3
:10032600540FC868F548E547C454F048F547E560FA
:10033600C4540F2548F548E43547F547E560540FA2
:10034600754900F54AAE497806C333CE33CED8F99F
:1003560012155790005DE53DF0A3E53EF0A3E53F9D
:10036600F0A3E540F0A3E541F0A3E542F0A3E543A1
:10037600F0A3E544F0A3E545F0A3E546F0A3E54781
:10038600F0A3E548F0A3E549F0A3E54AF0A3E54B61
:10039600F0A3E54CF0D209E4900073F0A3F002005C
:1003A600D6E55864A160030200D6F53D85593EAEF8
:1003B6003DE53E7802C333CE33CED8F9F53E8E3DC9
:1003C600E55AC413135403253EF53EE4353DF53D89
:1003D600E55A543F753F00F540C4F8540FC868F518
:1003E60040E53FC454F048F53FE55BC4540F254053
:1003F600F540E4353FF53FE55B540F754100F542A6
:10040600AE417806C333CE33CED8F9F5428E41E5F8
:100416005C1313543F2542F542E43541F541E55C52
:100426005403754300F544754400F543E55D2544E2
:10043600F544E43543F543754500855E46AE45E52E
:10044600467802C333CE33CED8F9F5468E45E55FFE
:10045600C4131354032546F546E43545F545E55FD3
:10046600543F754700F548C4F8540FC868F548E589
:1004760047C454F048F547E560C4540F2548F5488D
:10048600E43547F547E560540F754900F54AAE492E
:100496007806C333CE33CED8F9121557853D288555
:1004A6003E29853F2A85402B85412C85422D854353
:1004B6002E85442F8545308546318547328548331C
:1004C600854934854A35854B36854C37120D790278
:1004D60000D60527D3E5279405748094804002D280
:1004E60008300823054ED3E54E946374809480400B
:1004F60003E4F54EE54E9015DC932470F8E6FF1202
:1005060018FAD2060200D6054DD3E54D9404748040
:0F05160094804003E4F54D1218F3D2060200D68C
:03000B00020525C6
:10052500C0E0C0F0C083C082C0D075D000C000C09C
:0705350004C005C006C00769
:10053C00200B03020679053BE53B14B41200400383
:10054C000208EC90055D75F003A4C58325F0C58306
:10055C00730205930205A90205AC0205C20205C58A
:10056C000205DA0205DC0205F10205F302060802B7
:10057C00060A02061F020621020636020638020689
:10058C005502066002066BD2B7758A70758CFEC375
:10059C0074A79529F50974FD952802064B0206559A
:1005AC00D2B7758A70758CFEC374A7952BF5097438
:1005BC00FD952A02064B020655D2B7758A70758CCA
:1005CC00FEC374A7952DF50974FD952C8071807967
:1005DC00D2B7758A70758CFEC374A7952FF5097404
:1005EC00FD952E805A8062D2B7758A70758CFEC3C9
:1005FC0074A79531F50974FD95308043804BD2B7C3
:10060C00758A70758CFEC374A79533F50974FD95C6
:10061C0032802C8034D2B7758A70758CFEC374A767
:10062C009535F50974FD95348015801DD2B7758A02
:10063C0070758CFEC374A79537F50974FD9536F566
:10064C000885093CF53A0208ECC2B7853C8A853A24
:10065C008C0208ECD2B7758A70758CFE0208ECC25D
:10066C00B7758AF0758CD8753B000208EC300743DF
:10067C00D2B1D3E539941874809480400575390053
:10068C008019309902C299747D2539F582E43400C1
:10069C00F583E0A2D0929BF5990539E53964197080
:1006AC0009758AF0758CD80208EC758A88758CFFF0
:1006BC000208EC0538E53814B4100040030208ECCD
:1006CC009006DA75F003A4C58325F0C58373020781
:1006DC000A0207540207630207AA0207B90207D4E9
:1006EC000207E00207FB02080602082102082C029E
:1006FC00084602085102086B0208940208C2300036
:10070C002AC3E5299464E5289400500575F4038008
:10071C000375F400AE28E5297802CEC313CE13D8A6
:10072C00F9FFC374FF9FF5FC0208AC300A15C3E552
:10073C002994F4E52894015005C2B70208ACD2B74D
:10074C000208ACD2B70208AC200005200A02C2B7DE
:10075C00AE2AAF2B020874300129C3E52B9464E553
:10076C002A9400500575F303800375F300AE2AE557
:10077C002B7802CEC313CE13D8F9FFC374FF9FF5A9
:10078C00FB8018300C13C3E52B94F4E52A9401502C
:10079C0004C2B68006D2B68002D2B60208AC2001E2
:1007AC0005200C02C2B6AE2CAF2D020874300D130E
:1007BC00C3E52D94F4E52C94015004C2B38006D209
:1007CC00B38002D2B30208AC200D02C2B3AE2EAF7E
:1007DC002F020874300E13C3E52F94F4E52E940108
:1007EC005004C2B28006D2B28002D2B20208AC204F
:1007FC000E02C2B2AE30AF31806E300F13C3E53192
:10080C0094F4E53094015004C2B18006D2B1800258
:10081C00D2B10208AC200F02C2B1AE32AF33804865
:10082C00301013C3E53394F4E53294015004C2B094
:10083C008006D2B08002D2B08066201002C2B0AE68
:10084C0034AF358023301113C3E53594F4E534947B
:10085C00015004C2B48006D2B48002D2B4804120CC
:10086C001102C2B4AE36AF377C007D1B120FFF7D78
:10087C0014121011C374D59FF55574FC9EF5548554
:10088C00558AE554F58C8058301213C3E53794F42F
:10089C00E53694015004C2B58006D2B58002D2B5BB
:1008AC00C374589555F55774F69554F55685578A73
:1008BC00E556F58C802A201202C2B5AE28AF297CF1
:1008CC00007D1B120FFF7D14121011C374D59FF500
:1008DC005574FC9EF55485558AE554F58C75380095
:1008EC00D007D006D005D004D000D0D0D082D08391
:0508FC00D0F0D0E03255
:03003B000216EBBF
:1016EB00C0E0C0F0C083C082C0D075D000C000C0C5
:1016FB0001C002C003C004C005C006C00775E9489D
:10170B0075F9F475D840120B42D007D006D005D02E
:10171B0004D003D002D001D000D0D0D082D083D05F
:04172B00F0D0E032E8
:030063000217730E
:10177300C0E0C0F0C083C082C0D075D000C000C03C
:1017830001C002C003C004C005C006C007120B425B
:10179300D007D006D005D004D003D002D001D000AA
:0B17A300D0D0D082D083D0F0D0E03254
:03000000021444A3
:0C144400787FE4F6D8FD75817502148BEA
:100F9700BB010689828A83E0225002E722BBFE0258
:090FA700E32289828A83E493228B
:100FB000BB010CE58229F582E5833AF583E02250F6
:100FC00006E92582F8E622BBFE06E92582F8E22240
:0D0FD000E58229F582E5833AF583E493225A
:100FDD00F8BB010DE58229F582E5833AF583E8F04A
:100FED00225006E92582C8F622BBFE05E92582C8F6
:020FFD00F222DE
:100FFF00EF8DF0A4A8F0CF8CF0A428CE8DF0A42E06
:02100F00FE22BF
:10101100BC000BBE0029EF8DF084FFADF022E4CCC3
:10102100F875F008EF2FFFEE33FEEC33FCEE9DEC8C
:10103100984005FCEE9DFE0FD5F0E9E4CEFD22EDD2
:10104100F8F5F0EE8420D21CFEADF075F008EF2F1C
:10105100FFED33FD4007985006D5F0F222C398FD0D
:051061000FD5F0EA22AA
:10106600E88FF0A4CC8BF0A42CFCE98EF0A42CFC29
:101076008AF0EDA42CFCEA8EF0A4CDA8F08BF0A4A7
:101086002DCC3825F0FDE98FF0A42CCD35F0FCEB06
:101096008EF0A4FEA9F0EB8FF0A4CFC5F02ECD39CB
:0F10A600FEE43CFCEAA42DCE35F0FDE43CFC2238
:10172F00C2D5E830E70FB2D5E4C39BFBE49AFAE4E5
:10173F0099F9E498F8EC30E717B2D5121765121142
:10174F000AE4C39BFBE49AFAE499F9E498F880035E
:10175F0012110A30D50DE4C39FFFE49EFEE49DFDF8
:04176F00E49CFC22D8
:0D10B500E6FB08E6F908E6FA08E6CBF822AB
:0C10C200ECF608EDF608EEF608EFF6225A
:10145000020066E493A3F8E493A34003F68001F24C
:1014600008DFF48029E493A3F85407240CC8C3339D
:10147000C4540F4420C8834004F456800146F6DF6C
:10148000E4800B0102040810204080901645E47EA1
:10149000019360BCA3FF543F30E509541FFEE49361
:1014A000A360010ECF54C025E060A840B8E493A328
:1014B000FAE493A3F8E493A3C8C582C8CAC583CA53
:1014C000F0A3C8C582C8CAC583CADFE9DEE780BE0B
:011699000050
:1010CE0075F008758200EF2FFFEE33FECD33CDCCD9
:1010DE0033CCC58233C5829BED9AEC99E58298405C
:1010EE000CF582EE9BFEED9AFDEC99FC0FD5F0D639
:1010FE00E4CEFBE4CDFAE4CCF9A88222B800C1B963
:10110E000059BA002DEC8BF084CFCECDFCE5F0CBA0
:10111E00F97818EF2FFFEE33FEED33FDEC33FCEBD9
:10112E0033FB10D703994004EB99FB0FD8E5E4F994
:10113E00FA227818EF2FFFEE33FEED33FDEC33FC81
:10114E00C933C910D7059BE99A4007EC9BFCE99A75
:10115E00F90FD8E0E4C9FAE4CCFB2275F010EF2FBA
:10116E00FFEE33FEED33FDCC33CCC833C810D707BA
:10117E009BEC9AE899400AED9BFDEC9AFCE899F8F5
:0E118E000FD5F0DAE4CDFBE4CCFAE4C8F92288
:00000001FF
